{
  "contractName": "GameItem",
  "abi": [
    {
      "inputs": [],
      "stateMutability": "nonpayable",
      "type": "constructor"
    },
    {
      "anonymous": false,
      "inputs": [
        {
          "indexed": true,
          "internalType": "address",
          "name": "owner",
          "type": "address"
        },
        {
          "indexed": true,
          "internalType": "address",
          "name": "approved",
          "type": "address"
        },
        {
          "indexed": true,
          "internalType": "uint256",
          "name": "tokenId",
          "type": "uint256"
        }
      ],
      "name": "Approval",
      "type": "event"
    },
    {
      "anonymous": false,
      "inputs": [
        {
          "indexed": true,
          "internalType": "address",
          "name": "owner",
          "type": "address"
        },
        {
          "indexed": true,
          "internalType": "address",
          "name": "operator",
          "type": "address"
        },
        {
          "indexed": false,
          "internalType": "bool",
          "name": "approved",
          "type": "bool"
        }
      ],
      "name": "ApprovalForAll",
      "type": "event"
    },
    {
      "anonymous": false,
      "inputs": [
        {
          "indexed": true,
          "internalType": "address",
          "name": "from",
          "type": "address"
        },
        {
          "indexed": true,
          "internalType": "address",
          "name": "to",
          "type": "address"
        },
        {
          "indexed": true,
          "internalType": "uint256",
          "name": "tokenId",
          "type": "uint256"
        }
      ],
      "name": "Transfer",
      "type": "event"
    },
    {
      "inputs": [
        {
          "internalType": "address",
          "name": "to",
          "type": "address"
        },
        {
          "internalType": "uint256",
          "name": "tokenId",
          "type": "uint256"
        }
      ],
      "name": "approve",
      "outputs": [],
      "stateMutability": "nonpayable",
      "type": "function"
    },
    {
      "inputs": [
        {
          "internalType": "address",
          "name": "owner",
          "type": "address"
        }
      ],
      "name": "balanceOf",
      "outputs": [
        {
          "internalType": "uint256",
          "name": "",
          "type": "uint256"
        }
      ],
      "stateMutability": "view",
      "type": "function"
    },
    {
      "inputs": [
        {
          "internalType": "uint256",
          "name": "tokenId",
          "type": "uint256"
        }
      ],
      "name": "getApproved",
      "outputs": [
        {
          "internalType": "address",
          "name": "",
          "type": "address"
        }
      ],
      "stateMutability": "view",
      "type": "function"
    },
    {
      "inputs": [
        {
          "internalType": "address",
          "name": "owner",
          "type": "address"
        },
        {
          "internalType": "address",
          "name": "operator",
          "type": "address"
        }
      ],
      "name": "isApprovedForAll",
      "outputs": [
        {
          "internalType": "bool",
          "name": "",
          "type": "bool"
        }
      ],
      "stateMutability": "view",
      "type": "function"
    },
    {
      "inputs": [],
      "name": "name",
      "outputs": [
        {
          "internalType": "string",
          "name": "",
          "type": "string"
        }
      ],
      "stateMutability": "view",
      "type": "function"
    },
    {
      "inputs": [
        {
          "internalType": "uint256",
          "name": "tokenId",
          "type": "uint256"
        }
      ],
      "name": "ownerOf",
      "outputs": [
        {
          "internalType": "address",
          "name": "",
          "type": "address"
        }
      ],
      "stateMutability": "view",
      "type": "function"
    },
    {
      "inputs": [
        {
          "internalType": "address",
          "name": "from",
          "type": "address"
        },
        {
          "internalType": "address",
          "name": "to",
          "type": "address"
        },
        {
          "internalType": "uint256",
          "name": "tokenId",
          "type": "uint256"
        }
      ],
      "name": "safeTransferFrom",
      "outputs": [],
      "stateMutability": "nonpayable",
      "type": "function"
    },
    {
      "inputs": [
        {
          "internalType": "address",
          "name": "from",
          "type": "address"
        },
        {
          "internalType": "address",
          "name": "to",
          "type": "address"
        },
        {
          "internalType": "uint256",
          "name": "tokenId",
          "type": "uint256"
        },
        {
          "internalType": "bytes",
          "name": "_data",
          "type": "bytes"
        }
      ],
      "name": "safeTransferFrom",
      "outputs": [],
      "stateMutability": "nonpayable",
      "type": "function"
    },
    {
      "inputs": [
        {
          "internalType": "address",
          "name": "operator",
          "type": "address"
        },
        {
          "internalType": "bool",
          "name": "approved",
          "type": "bool"
        }
      ],
      "name": "setApprovalForAll",
      "outputs": [],
      "stateMutability": "nonpayable",
      "type": "function"
    },
    {
      "inputs": [
        {
          "internalType": "bytes4",
          "name": "interfaceId",
          "type": "bytes4"
        }
      ],
      "name": "supportsInterface",
      "outputs": [
        {
          "internalType": "bool",
          "name": "",
          "type": "bool"
        }
      ],
      "stateMutability": "view",
      "type": "function"
    },
    {
      "inputs": [],
      "name": "symbol",
      "outputs": [
        {
          "internalType": "string",
          "name": "",
          "type": "string"
        }
      ],
      "stateMutability": "view",
      "type": "function"
    },
    {
      "inputs": [
        {
          "internalType": "uint256",
          "name": "tokenId",
          "type": "uint256"
        }
      ],
      "name": "tokenURI",
      "outputs": [
        {
          "internalType": "string",
          "name": "",
          "type": "string"
        }
      ],
      "stateMutability": "view",
      "type": "function"
    },
    {
      "inputs": [
        {
          "internalType": "address",
          "name": "from",
          "type": "address"
        },
        {
          "internalType": "address",
          "name": "to",
          "type": "address"
        },
        {
          "internalType": "uint256",
          "name": "tokenId",
          "type": "uint256"
        }
      ],
      "name": "transferFrom",
      "outputs": [],
      "stateMutability": "nonpayable",
      "type": "function"
    },
    {
      "inputs": [
        {
          "internalType": "string",
          "name": "tokenURI",
          "type": "string"
        }
      ],
      "name": "createCollection",
      "outputs": [
        {
          "internalType": "uint256",
          "name": "",
          "type": "uint256"
        }
      ],
      "stateMutability": "nonpayable",
      "type": "function"
    }
  ],
  "bytecode": "0x60806040523480156200001157600080fd5b506040518060400160405280600781526020017f4269636173736f000000000000000000000000000000000000000000000000008152506040518060400160405280600581526020017f434153534f000000000000000000000000000000000000000000000000000000815250816000908051906020019062000096929190620000b8565b508060019080519060200190620000af929190620000b8565b505050620001cc565b828054620000c69062000197565b90600052602060002090601f016020900481019282620000ea576000855562000136565b82601f106200010557805160ff191683800117855562000136565b8280016001018555821562000136579182015b828111156200013557825182559160200191906001019062000118565b5b50905062000145919062000149565b5090565b5b80821115620001645760008160009055506001016200014a565b5090565b7f4e487b7100000000000000000000000000000000000000000000000000000000600052602260045260246000fd5b60006002820490506001821680620001b057607f821691505b602082108103620001c657620001c562000168565b5b50919050565b612ba280620001dc6000396000f3fe608060405234801561001057600080fd5b50600436106100ea5760003560e01c80636352211e1161008c578063a22cb46511610066578063a22cb4651461026f578063b88d4fde1461028b578063c87b56dd146102a7578063e985e9c5146102d7576100ea565b80636352211e146101f157806370a082311461022157806395d89b4114610251576100ea565b8063081812fc116100c8578063081812fc1461016d578063095ea7b31461019d57806323b872dd146101b957806342842e0e146101d5576100ea565b806301ffc9a7146100ef578063059dfe131461011f57806306fdde031461014f575b600080fd5b61010960048036038101906101049190611919565b610307565b6040516101169190611961565b60405180910390f35b61013960048036038101906101349190611ac2565b6103e9565b6040516101469190611b24565b60405180910390f35b61015761041f565b6040516101649190611bc7565b60405180910390f35b61018760048036038101906101829190611c15565b6104b1565b6040516101949190611c83565b60405180910390f35b6101b760048036038101906101b29190611cca565b610536565b005b6101d360048036038101906101ce9190611d0a565b61064d565b005b6101ef60048036038101906101ea9190611d0a565b6106ad565b005b61020b60048036038101906102069190611c15565b6106cd565b6040516102189190611c83565b60405180910390f35b61023b60048036038101906102369190611d5d565b61077e565b6040516102489190611b24565b60405180910390f35b610259610835565b6040516102669190611bc7565b60405180910390f35b61028960048036038101906102849190611db6565b6108c7565b005b6102a560048036038101906102a09190611e97565b6108dd565b005b6102c160048036038101906102bc9190611c15565b61093f565b6040516102ce9190611bc7565b60405180910390f35b6102f160048036038101906102ec9190611f1a565b610a90565b6040516102fe9190611961565b60405180910390f35b60007f80ac58cd000000000000000000000000000000000000000000000000000000007bffffffffffffffffffffffffffffffffffffffffffffffffffffffff1916827bffffffffffffffffffffffffffffffffffffffffffffffffffffffff191614806103d257507f5b5e139f000000000000000000000000000000000000000000000000000000007bffffffffffffffffffffffffffffffffffffffffffffffffffffffff1916827bffffffffffffffffffffffffffffffffffffffffffffffffffffffff1916145b806103e257506103e182610b24565b5b9050919050565b6000806103f66007610b8e565b90506104023382610b9c565b61040c8184610d75565b6104166007610de9565b80915050919050565b60606000805461042e90611f89565b80601f016020809104026020016040519081016040528092919081815260200182805461045a90611f89565b80156104a75780601f1061047c576101008083540402835291602001916104a7565b820191906000526020600020905b81548152906001019060200180831161048a57829003601f168201915b5050505050905090565b60006104bc82610dff565b6104fb576040517f08c379a00000000000000000000000000000000000000000000000000000000081526004016104f29061202c565b60405180910390fd5b6004600083815260200190815260200160002060009054906101000a900473ffffffffffffffffffffffffffffffffffffffff169050919050565b6000610541826106cd565b90508073ffffffffffffffffffffffffffffffffffffffff168373ffffffffffffffffffffffffffffffffffffffff16036105b1576040517f08c379a00000000000000000000000000000000000000000000000000000000081526004016105a8906120be565b60405180910390fd5b8073ffffffffffffffffffffffffffffffffffffffff166105d0610e6b565b73ffffffffffffffffffffffffffffffffffffffff1614806105ff57506105fe816105f9610e6b565b610a90565b5b61063e576040517f08c379a000000000000000000000000000000000000000000000000000000000815260040161063590612150565b60405180910390fd5b6106488383610e73565b505050565b61065e610658610e6b565b82610f2c565b61069d576040517f08c379a0000000000000000000000000000000000000000000000000000000008152600401610694906121e2565b60405180910390fd5b6106a883838361100a565b505050565b6106c8838383604051806020016040528060008152506108dd565b505050565b6000806002600084815260200190815260200160002060009054906101000a900473ffffffffffffffffffffffffffffffffffffffff169050600073ffffffffffffffffffffffffffffffffffffffff168173ffffffffffffffffffffffffffffffffffffffff1603610775576040517f08c379a000000000000000000000000000000000000000000000000000000000815260040161076c90612274565b60405180910390fd5b80915050919050565b60008073ffffffffffffffffffffffffffffffffffffffff168273ffffffffffffffffffffffffffffffffffffffff16036107ee576040517f08c379a00000000000000000000000000000000000000000000000000000000081526004016107e590612306565b60405180910390fd5b600360008373ffffffffffffffffffffffffffffffffffffffff1673ffffffffffffffffffffffffffffffffffffffff168152602001908152602001600020549050919050565b60606001805461084490611f89565b80601f016020809104026020016040519081016040528092919081815260200182805461087090611f89565b80156108bd5780601f10610892576101008083540402835291602001916108bd565b820191906000526020600020905b8154815290600101906020018083116108a057829003601f168201915b5050505050905090565b6108d96108d2610e6b565b8383611270565b5050565b6108ee6108e8610e6b565b83610f2c565b61092d576040517f08c379a0000000000000000000000000000000000000000000000000000000008152600401610924906121e2565b60405180910390fd5b610939848484846113dc565b50505050565b606061094a82610dff565b610989576040517f08c379a000000000000000000000000000000000000000000000000000000000815260040161098090612398565b60405180910390fd5b60006006600084815260200190815260200160002080546109a990611f89565b80601f01602080910402602001604051908101604052809291908181526020018280546109d590611f89565b8015610a225780601f106109f757610100808354040283529160200191610a22565b820191906000526020600020905b815481529060010190602001808311610a0557829003601f168201915b505050505090506000610a33611438565b90506000815103610a48578192505050610a8b565b600082511115610a7d578082604051602001610a659291906123f4565b60405160208183030381529060405292505050610a8b565b610a868461144f565b925050505b919050565b6000600560008473ffffffffffffffffffffffffffffffffffffffff1673ffffffffffffffffffffffffffffffffffffffff16815260200190815260200160002060008373ffffffffffffffffffffffffffffffffffffffff1673ffffffffffffffffffffffffffffffffffffffff16815260200190815260200160002060009054906101000a900460ff16905092915050565b60007f01ffc9a7000000000000000000000000000000000000000000000000000000007bffffffffffffffffffffffffffffffffffffffffffffffffffffffff1916827bffffffffffffffffffffffffffffffffffffffffffffffffffffffff1916149050919050565b600081600001549050919050565b600073ffffffffffffffffffffffffffffffffffffffff168273ffffffffffffffffffffffffffffffffffffffff1603610c0b576040517f08c379a0000000000000000000000000000000000000000000000000000000008152600401610c0290612464565b60405180910390fd5b610c1481610dff565b15610c54576040517f08c379a0000000000000000000000000000000000000000000000000000000008152600401610c4b906124d0565b60405180910390fd5b610c60600083836114f6565b6001600360008473ffffffffffffffffffffffffffffffffffffffff1673ffffffffffffffffffffffffffffffffffffffff1681526020019081526020016000206000828254610cb0919061251f565b92505081905550816002600083815260200190815260200160002060006101000a81548173ffffffffffffffffffffffffffffffffffffffff021916908373ffffffffffffffffffffffffffffffffffffffff160217905550808273ffffffffffffffffffffffffffffffffffffffff16600073ffffffffffffffffffffffffffffffffffffffff167fddf252ad1be2c89b69c2b068fc378daa952ba7f163c4a11628f55a4df523b3ef60405160405180910390a4610d71600083836114fb565b5050565b610d7e82610dff565b610dbd576040517f08c379a0000000000000000000000000000000000000000000000000000000008152600401610db4906125e7565b60405180910390fd5b80600660008481526020019081526020016000209080519060200190610de492919061180a565b505050565b6001816000016000828254019250508190555050565b60008073ffffffffffffffffffffffffffffffffffffffff166002600084815260200190815260200160002060009054906101000a900473ffffffffffffffffffffffffffffffffffffffff1673ffffffffffffffffffffffffffffffffffffffff1614159050919050565b600033905090565b816004600083815260200190815260200160002060006101000a81548173ffffffffffffffffffffffffffffffffffffffff021916908373ffffffffffffffffffffffffffffffffffffffff160217905550808273ffffffffffffffffffffffffffffffffffffffff16610ee6836106cd565b73ffffffffffffffffffffffffffffffffffffffff167f8c5be1e5ebec7d5bd14f71427d1e84f3dd0314c0f7b2291e5b200ac8c7c3b92560405160405180910390a45050565b6000610f3782610dff565b610f76576040517f08c379a0000000000000000000000000000000000000000000000000000000008152600401610f6d90612679565b60405180910390fd5b6000610f81836106cd565b90508073ffffffffffffffffffffffffffffffffffffffff168473ffffffffffffffffffffffffffffffffffffffff161480610fc35750610fc28185610a90565b5b8061100157508373ffffffffffffffffffffffffffffffffffffffff16610fe9846104b1565b73ffffffffffffffffffffffffffffffffffffffff16145b91505092915050565b8273ffffffffffffffffffffffffffffffffffffffff1661102a826106cd565b73ffffffffffffffffffffffffffffffffffffffff1614611080576040517f08c379a00000000000000000000000000000000000000000000000000000000081526004016110779061270b565b60405180910390fd5b600073ffffffffffffffffffffffffffffffffffffffff168273ffffffffffffffffffffffffffffffffffffffff16036110ef576040517f08c379a00000000000000000000000000000000000000000000000000000000081526004016110e69061279d565b60405180910390fd5b6110fa8383836114f6565b611105600082610e73565b6001600360008573ffffffffffffffffffffffffffffffffffffffff1673ffffffffffffffffffffffffffffffffffffffff168152602001908152602001600020600082825461115591906127bd565b925050819055506001600360008473ffffffffffffffffffffffffffffffffffffffff1673ffffffffffffffffffffffffffffffffffffffff16815260200190815260200160002060008282546111ac919061251f565b92505081905550816002600083815260200190815260200160002060006101000a81548173ffffffffffffffffffffffffffffffffffffffff021916908373ffffffffffffffffffffffffffffffffffffffff160217905550808273ffffffffffffffffffffffffffffffffffffffff168473ffffffffffffffffffffffffffffffffffffffff167fddf252ad1be2c89b69c2b068fc378daa952ba7f163c4a11628f55a4df523b3ef60405160405180910390a461126b8383836114fb565b505050565b8173ffffffffffffffffffffffffffffffffffffffff168373ffffffffffffffffffffffffffffffffffffffff16036112de576040517f08c379a00000000000000000000000000000000000000000000000000000000081526004016112d59061283d565b60405180910390fd5b80600560008573ffffffffffffffffffffffffffffffffffffffff1673ffffffffffffffffffffffffffffffffffffffff16815260200190815260200160002060008473ffffffffffffffffffffffffffffffffffffffff1673ffffffffffffffffffffffffffffffffffffffff16815260200190815260200160002060006101000a81548160ff0219169083151502179055508173ffffffffffffffffffffffffffffffffffffffff168373ffffffffffffffffffffffffffffffffffffffff167f17307eab39ab6107e8899845ad3d59bd9653f200f220920489ca2b5937696c31836040516113cf9190611961565b60405180910390a3505050565b6113e784848461100a565b6113f384848484611500565b611432576040517f08c379a0000000000000000000000000000000000000000000000000000000008152600401611429906128cf565b60405180910390fd5b50505050565b606060405180602001604052806000815250905090565b606061145a82610dff565b611499576040517f08c379a000000000000000000000000000000000000000000000000000000000815260040161149090612961565b60405180910390fd5b60006114a3611438565b905060008151116114c357604051806020016040528060008152506114ee565b806114cd84611687565b6040516020016114de9291906123f4565b6040516020818303038152906040525b915050919050565b505050565b505050565b60006115218473ffffffffffffffffffffffffffffffffffffffff166117e7565b1561167a578373ffffffffffffffffffffffffffffffffffffffff1663150b7a0261154a610e6b565b8786866040518563ffffffff1660e01b815260040161156c94939291906129d6565b6020604051808303816000875af19250505080156115a857506040513d601f19601f820116820180604052508101906115a59190612a37565b60015b61162a573d80600081146115d8576040519150601f19603f3d011682016040523d82523d6000602084013e6115dd565b606091505b506000815103611622576040517f08c379a0000000000000000000000000000000000000000000000000000000008152600401611619906128cf565b60405180910390fd5b805181602001fd5b63150b7a0260e01b7bffffffffffffffffffffffffffffffffffffffffffffffffffffffff1916817bffffffffffffffffffffffffffffffffffffffffffffffffffffffff19161491505061167f565b600190505b949350505050565b6060600082036116ce576040518060400160405280600181526020017f300000000000000000000000000000000000000000000000000000000000000081525090506117e2565b600082905060005b600082146117005780806116e990612a64565b915050600a826116f99190612adb565b91506116d6565b60008167ffffffffffffffff81111561171c5761171b611997565b5b6040519080825280601f01601f19166020018201604052801561174e5781602001600182028036833780820191505090505b5090505b600085146117db5760018261176791906127bd565b9150600a856117769190612b0c565b6030611782919061251f565b60f81b81838151811061179857611797612b3d565b5b60200101907effffffffffffffffffffffffffffffffffffffffffffffffffffffffffffff1916908160001a905350600a856117d49190612adb565b9450611752565b8093505050505b919050565b6000808273ffffffffffffffffffffffffffffffffffffffff163b119050919050565b82805461181690611f89565b90600052602060002090601f016020900481019282611838576000855561187f565b82601f1061185157805160ff191683800117855561187f565b8280016001018555821561187f579182015b8281111561187e578251825591602001919060010190611863565b5b50905061188c9190611890565b5090565b5b808211156118a9576000816000905550600101611891565b5090565b6000604051905090565b600080fd5b600080fd5b60007fffffffff0000000000000000000000000000000000000000000000000000000082169050919050565b6118f6816118c1565b811461190157600080fd5b50565b600081359050611913816118ed565b92915050565b60006020828403121561192f5761192e6118b7565b5b600061193d84828501611904565b91505092915050565b60008115159050919050565b61195b81611946565b82525050565b60006020820190506119766000830184611952565b92915050565b600080fd5b600080fd5b6000601f19601f8301169050919050565b7f4e487b7100000000000000000000000000000000000000000000000000000000600052604160045260246000fd5b6119cf82611986565b810181811067ffffffffffffffff821117156119ee576119ed611997565b5b80604052505050565b6000611a016118ad565b9050611a0d82826119c6565b919050565b600067ffffffffffffffff821115611a2d57611a2c611997565b5b611a3682611986565b9050602081019050919050565b82818337600083830152505050565b6000611a65611a6084611a12565b6119f7565b905082815260208101848484011115611a8157611a80611981565b5b611a8c848285611a43565b509392505050565b600082601f830112611aa957611aa861197c565b5b8135611ab9848260208601611a52565b91505092915050565b600060208284031215611ad857611ad76118b7565b5b600082013567ffffffffffffffff811115611af657611af56118bc565b5b611b0284828501611a94565b91505092915050565b6000819050919050565b611b1e81611b0b565b82525050565b6000602082019050611b396000830184611b15565b92915050565b600081519050919050565b600082825260208201905092915050565b60005b83811015611b79578082015181840152602081019050611b5e565b83811115611b88576000848401525b50505050565b6000611b9982611b3f565b611ba38185611b4a565b9350611bb3818560208601611b5b565b611bbc81611986565b840191505092915050565b60006020820190508181036000830152611be18184611b8e565b905092915050565b611bf281611b0b565b8114611bfd57600080fd5b50565b600081359050611c0f81611be9565b92915050565b600060208284031215611c2b57611c2a6118b7565b5b6000611c3984828501611c00565b91505092915050565b600073ffffffffffffffffffffffffffffffffffffffff82169050919050565b6000611c6d82611c42565b9050919050565b611c7d81611c62565b82525050565b6000602082019050611c986000830184611c74565b92915050565b611ca781611c62565b8114611cb257600080fd5b50565b600081359050611cc481611c9e565b92915050565b60008060408385031215611ce157611ce06118b7565b5b6000611cef85828601611cb5565b9250506020611d0085828601611c00565b9150509250929050565b600080600060608486031215611d2357611d226118b7565b5b6000611d3186828701611cb5565b9350506020611d4286828701611cb5565b9250506040611d5386828701611c00565b9150509250925092565b600060208284031215611d7357611d726118b7565b5b6000611d8184828501611cb5565b91505092915050565b611d9381611946565b8114611d9e57600080fd5b50565b600081359050611db081611d8a565b92915050565b60008060408385031215611dcd57611dcc6118b7565b5b6000611ddb85828601611cb5565b9250506020611dec85828601611da1565b9150509250929050565b600067ffffffffffffffff821115611e1157611e10611997565b5b611e1a82611986565b9050602081019050919050565b6000611e3a611e3584611df6565b6119f7565b905082815260208101848484011115611e5657611e55611981565b5b611e61848285611a43565b509392505050565b600082601f830112611e7e57611e7d61197c565b5b8135611e8e848260208601611e27565b91505092915050565b60008060008060808587031215611eb157611eb06118b7565b5b6000611ebf87828801611cb5565b9450506020611ed087828801611cb5565b9350506040611ee187828801611c00565b925050606085013567ffffffffffffffff811115611f0257611f016118bc565b5b611f0e87828801611e69565b91505092959194509250565b60008060408385031215611f3157611f306118b7565b5b6000611f3f85828601611cb5565b9250506020611f5085828601611cb5565b9150509250929050565b7f4e487b7100000000000000000000000000000000000000000000000000000000600052602260045260246000fd5b60006002820490506001821680611fa157607f821691505b602082108103611fb457611fb3611f5a565b5b50919050565b7f4552433732313a20617070726f76656420717565727920666f72206e6f6e657860008201527f697374656e7420746f6b656e0000000000000000000000000000000000000000602082015250565b6000612016602c83611b4a565b915061202182611fba565b604082019050919050565b6000602082019050818103600083015261204581612009565b9050919050565b7f4552433732313a20617070726f76616c20746f2063757272656e74206f776e6560008201527f7200000000000000000000000000000000000000000000000000000000000000602082015250565b60006120a8602183611b4a565b91506120b38261204c565b604082019050919050565b600060208201905081810360008301526120d78161209b565b9050919050565b7f4552433732313a20617070726f76652063616c6c6572206973206e6f74206f7760008201527f6e6572206e6f7220617070726f76656420666f7220616c6c0000000000000000602082015250565b600061213a603883611b4a565b9150612145826120de565b604082019050919050565b600060208201905081810360008301526121698161212d565b9050919050565b7f4552433732313a207472616e736665722063616c6c6572206973206e6f74206f60008201527f776e6572206e6f7220617070726f766564000000000000000000000000000000602082015250565b60006121cc603183611b4a565b91506121d782612170565b604082019050919050565b600060208201905081810360008301526121fb816121bf565b9050919050565b7f4552433732313a206f776e657220717565727920666f72206e6f6e657869737460008201527f656e7420746f6b656e0000000000000000000000000000000000000000000000602082015250565b600061225e602983611b4a565b915061226982612202565b604082019050919050565b6000602082019050818103600083015261228d81612251565b9050919050565b7f4552433732313a2062616c616e636520717565727920666f7220746865207a6560008201527f726f206164647265737300000000000000000000000000000000000000000000602082015250565b60006122f0602a83611b4a565b91506122fb82612294565b604082019050919050565b6000602082019050818103600083015261231f816122e3565b9050919050565b7f45524337323155524953746f726167653a2055524920717565727920666f722060008201527f6e6f6e6578697374656e7420746f6b656e000000000000000000000000000000602082015250565b6000612382603183611b4a565b915061238d82612326565b604082019050919050565b600060208201905081810360008301526123b181612375565b9050919050565b600081905092915050565b60006123ce82611b3f565b6123d881856123b8565b93506123e8818560208601611b5b565b80840191505092915050565b600061240082856123c3565b915061240c82846123c3565b91508190509392505050565b7f4552433732313a206d696e7420746f20746865207a65726f2061646472657373600082015250565b600061244e602083611b4a565b915061245982612418565b602082019050919050565b6000602082019050818103600083015261247d81612441565b9050919050565b7f4552433732313a20746f6b656e20616c7265616479206d696e74656400000000600082015250565b60006124ba601c83611b4a565b91506124c582612484565b602082019050919050565b600060208201905081810360008301526124e9816124ad565b9050919050565b7f4e487b7100000000000000000000000000000000000000000000000000000000600052601160045260246000fd5b600061252a82611b0b565b915061253583611b0b565b9250827fffffffffffffffffffffffffffffffffffffffffffffffffffffffffffffffff0382111561256a576125696124f0565b5b828201905092915050565b7f45524337323155524953746f726167653a2055524920736574206f66206e6f6e60008201527f6578697374656e7420746f6b656e000000000000000000000000000000000000602082015250565b60006125d1602e83611b4a565b91506125dc82612575565b604082019050919050565b60006020820190508181036000830152612600816125c4565b9050919050565b7f4552433732313a206f70657261746f7220717565727920666f72206e6f6e657860008201527f697374656e7420746f6b656e0000000000000000000000000000000000000000602082015250565b6000612663602c83611b4a565b915061266e82612607565b604082019050919050565b6000602082019050818103600083015261269281612656565b9050919050565b7f4552433732313a207472616e736665722066726f6d20696e636f72726563742060008201527f6f776e6572000000000000000000000000000000000000000000000000000000602082015250565b60006126f5602583611b4a565b915061270082612699565b604082019050919050565b60006020820190508181036000830152612724816126e8565b9050919050565b7f4552433732313a207472616e7366657220746f20746865207a65726f2061646460008201527f7265737300000000000000000000000000000000000000000000000000000000602082015250565b6000612787602483611b4a565b91506127928261272b565b604082019050919050565b600060208201905081810360008301526127b68161277a565b9050919050565b60006127c882611b0b565b91506127d383611b0b565b9250828210156127e6576127e56124f0565b5b828203905092915050565b7f4552433732313a20617070726f766520746f2063616c6c657200000000000000600082015250565b6000612827601983611b4a565b9150612832826127f1565b602082019050919050565b600060208201905081810360008301526128568161281a565b9050919050565b7f4552433732313a207472616e7366657220746f206e6f6e20455243373231526560008201527f63656976657220696d706c656d656e7465720000000000000000000000000000602082015250565b60006128b9603283611b4a565b91506128c48261285d565b604082019050919050565b600060208201905081810360008301526128e8816128ac565b9050919050565b7f4552433732314d657461646174613a2055524920717565727920666f72206e6f60008201527f6e6578697374656e7420746f6b656e0000000000000000000000000000000000602082015250565b600061294b602f83611b4a565b9150612956826128ef565b604082019050919050565b6000602082019050818103600083015261297a8161293e565b9050919050565b600081519050919050565b600082825260208201905092915050565b60006129a882612981565b6129b2818561298c565b93506129c2818560208601611b5b565b6129cb81611986565b840191505092915050565b60006080820190506129eb6000830187611c74565b6129f86020830186611c74565b612a056040830185611b15565b8181036060830152612a17818461299d565b905095945050505050565b600081519050612a31816118ed565b92915050565b600060208284031215612a4d57612a4c6118b7565b5b6000612a5b84828501612a22565b91505092915050565b6000612a6f82611b0b565b91507fffffffffffffffffffffffffffffffffffffffffffffffffffffffffffffffff8203612aa157612aa06124f0565b5b600182019050919050565b7f4e487b7100000000000000000000000000000000000000000000000000000000600052601260045260246000fd5b6000612ae682611b0b565b9150612af183611b0b565b925082612b0157612b00612aac565b5b828204905092915050565b6000612b1782611b0b565b9150612b2283611b0b565b925082612b3257612b31612aac565b5b828206905092915050565b7f4e487b7100000000000000000000000000000000000000000000000000000000600052603260045260246000fdfea26469706673582212209609f0f24fb2bbdfe35eaabe7ac1b59890fdc5bd285bb71701aff36dfc897a2f64736f6c634300080d0033",
  "immutableReferences": {},
  "source": "// SPDX-License-Identifier: MIT\r\npragma solidity ^0.8.13;\r\n\r\nimport \"@openzeppelin/contracts/token/ERC721/extensions/ERC721URIStorage.sol\";\r\nimport \"@openzeppelin/contracts/utils/Counters.sol\";\r\n\r\ncontract GameItem is ERC721URIStorage {\r\n    // create collectible id for each picasso (bicasso) collection\r\n    using Counters for Counters.Counter;\r\n    Counters.Counter private _tokenIds;\r\n\r\n    constructor() ERC721(\"Bicasso\", \"CASSO\") {}\r\n\r\n    function createCollection(string memory tokenURI) public returns (uint256) {\r\n        uint256 newItemId = _tokenIds.current();\r\n        _mint(msg.sender, newItemId);\r\n        _setTokenURI(newItemId, tokenURI);\r\n\r\n        _tokenIds.increment();\r\n        return newItemId;\r\n    }\r\n}",
  "sourcePath": "C:\\Users\\JaimeLynn\\Desktop\\Project\\token-nft\\contracts\\NFT.sol",
  "compiler": {
    "name": "solc",
    "version": "0.8.13+commit.abaa5c0e.Emscripten.clang"
  },
  "schemaVersion": "3.4.7",
  "updatedAt": "2022-05-16T14:49:55.523Z",
  "devdoc": {
    "kind": "dev",
    "methods": {
      "approve(address,uint256)": {
        "details": "See {IERC721-approve}."
      },
      "balanceOf(address)": {
        "details": "See {IERC721-balanceOf}."
      },
      "getApproved(uint256)": {
        "details": "See {IERC721-getApproved}."
      },
      "isApprovedForAll(address,address)": {
        "details": "See {IERC721-isApprovedForAll}."
      },
      "name()": {
        "details": "See {IERC721Metadata-name}."
      },
      "ownerOf(uint256)": {
        "details": "See {IERC721-ownerOf}."
      },
      "safeTransferFrom(address,address,uint256)": {
        "details": "See {IERC721-safeTransferFrom}."
      },
      "safeTransferFrom(address,address,uint256,bytes)": {
        "details": "See {IERC721-safeTransferFrom}."
      },
      "setApprovalForAll(address,bool)": {
        "details": "See {IERC721-setApprovalForAll}."
      },
      "supportsInterface(bytes4)": {
        "details": "See {IERC165-supportsInterface}."
      },
      "symbol()": {
        "details": "See {IERC721Metadata-symbol}."
      },
      "tokenURI(uint256)": {
        "details": "See {IERC721Metadata-tokenURI}."
      },
      "transferFrom(address,address,uint256)": {
        "details": "See {IERC721-transferFrom}."
      }
    },
    "version": 1
  },
  "userdoc": {
    "kind": "user",
    "methods": {},
    "version": 1
  }
}