{
  "contractName": "TokenizeNFT",
  "abi": [
    {
      "inputs": [
        {
          "internalType": "string",
          "name": "_name",
          "type": "string"
        },
        {
          "internalType": "string",
          "name": "_symbol",
          "type": "string"
        },
        {
          "internalType": "address",
          "name": "_nftAddress",
          "type": "address"
        },
        {
          "internalType": "uint256",
          "name": "_nftId",
          "type": "uint256"
        },
        {
          "internalType": "uint256",
          "name": "_tokenPrice",
          "type": "uint256"
        },
        {
          "internalType": "uint256",
          "name": "_tokenSupply",
          "type": "uint256"
        },
        {
          "internalType": "address",
          "name": "_stableAddress",
          "type": "address"
        },
        {
          "internalType": "uint256",
          "name": "_numDaysToClose",
          "type": "uint256"
        },
        {
          "internalType": "uint256",
          "name": "_minAmtRaise",
          "type": "uint256"
        }
      ],
      "stateMutability": "nonpayable",
      "type": "constructor"
    },
    {
      "anonymous": false,
      "inputs": [
        {
          "indexed": true,
          "internalType": "address",
          "name": "owner",
          "type": "address"
        },
        {
          "indexed": true,
          "internalType": "address",
          "name": "spender",
          "type": "address"
        },
        {
          "indexed": false,
          "internalType": "uint256",
          "name": "value",
          "type": "uint256"
        }
      ],
      "name": "Approval",
      "type": "event"
    },
    {
      "anonymous": false,
      "inputs": [
        {
          "indexed": true,
          "internalType": "address",
          "name": "from",
          "type": "address"
        },
        {
          "indexed": true,
          "internalType": "address",
          "name": "to",
          "type": "address"
        },
        {
          "indexed": false,
          "internalType": "uint256",
          "name": "value",
          "type": "uint256"
        }
      ],
      "name": "Transfer",
      "type": "event"
    },
    {
      "inputs": [
        {
          "internalType": "address",
          "name": "",
          "type": "address"
        }
      ],
      "name": "_investorBalance",
      "outputs": [
        {
          "internalType": "uint256",
          "name": "",
          "type": "uint256"
        }
      ],
      "stateMutability": "view",
      "type": "function"
    },
    {
      "inputs": [
        {
          "internalType": "address",
          "name": "",
          "type": "address"
        }
      ],
      "name": "_investors",
      "outputs": [
        {
          "internalType": "bool",
          "name": "",
          "type": "bool"
        }
      ],
      "stateMutability": "view",
      "type": "function"
    },
    {
      "inputs": [
        {
          "internalType": "address",
          "name": "owner",
          "type": "address"
        },
        {
          "internalType": "address",
          "name": "spender",
          "type": "address"
        }
      ],
      "name": "allowance",
      "outputs": [
        {
          "internalType": "uint256",
          "name": "",
          "type": "uint256"
        }
      ],
      "stateMutability": "view",
      "type": "function"
    },
    {
      "inputs": [
        {
          "internalType": "address",
          "name": "spender",
          "type": "address"
        },
        {
          "internalType": "uint256",
          "name": "amount",
          "type": "uint256"
        }
      ],
      "name": "approve",
      "outputs": [
        {
          "internalType": "bool",
          "name": "",
          "type": "bool"
        }
      ],
      "stateMutability": "nonpayable",
      "type": "function"
    },
    {
      "inputs": [
        {
          "internalType": "address",
          "name": "account",
          "type": "address"
        }
      ],
      "name": "balanceOf",
      "outputs": [
        {
          "internalType": "uint256",
          "name": "",
          "type": "uint256"
        }
      ],
      "stateMutability": "view",
      "type": "function"
    },
    {
      "inputs": [],
      "name": "closePeriod",
      "outputs": [
        {
          "internalType": "uint256",
          "name": "",
          "type": "uint256"
        }
      ],
      "stateMutability": "view",
      "type": "function"
    },
    {
      "inputs": [],
      "name": "contractIssuer",
      "outputs": [
        {
          "internalType": "address",
          "name": "",
          "type": "address"
        }
      ],
      "stateMutability": "view",
      "type": "function"
    },
    {
      "inputs": [],
      "name": "decimals",
      "outputs": [
        {
          "internalType": "uint8",
          "name": "",
          "type": "uint8"
        }
      ],
      "stateMutability": "view",
      "type": "function"
    },
    {
      "inputs": [
        {
          "internalType": "address",
          "name": "spender",
          "type": "address"
        },
        {
          "internalType": "uint256",
          "name": "subtractedValue",
          "type": "uint256"
        }
      ],
      "name": "decreaseAllowance",
      "outputs": [
        {
          "internalType": "bool",
          "name": "",
          "type": "bool"
        }
      ],
      "stateMutability": "nonpayable",
      "type": "function"
    },
    {
      "inputs": [
        {
          "internalType": "address",
          "name": "spender",
          "type": "address"
        },
        {
          "internalType": "uint256",
          "name": "addedValue",
          "type": "uint256"
        }
      ],
      "name": "increaseAllowance",
      "outputs": [
        {
          "internalType": "bool",
          "name": "",
          "type": "bool"
        }
      ],
      "stateMutability": "nonpayable",
      "type": "function"
    },
    {
      "inputs": [],
      "name": "minAmtRaise",
      "outputs": [
        {
          "internalType": "uint256",
          "name": "",
          "type": "uint256"
        }
      ],
      "stateMutability": "view",
      "type": "function"
    },
    {
      "inputs": [],
      "name": "name",
      "outputs": [
        {
          "internalType": "string",
          "name": "",
          "type": "string"
        }
      ],
      "stateMutability": "view",
      "type": "function"
    },
    {
      "inputs": [],
      "name": "nft",
      "outputs": [
        {
          "internalType": "contract IERC721",
          "name": "",
          "type": "address"
        }
      ],
      "stateMutability": "view",
      "type": "function"
    },
    {
      "inputs": [],
      "name": "nftId",
      "outputs": [
        {
          "internalType": "uint256",
          "name": "",
          "type": "uint256"
        }
      ],
      "stateMutability": "view",
      "type": "function"
    },
    {
      "inputs": [],
      "name": "numDaysToClose",
      "outputs": [
        {
          "internalType": "uint256",
          "name": "",
          "type": "uint256"
        }
      ],
      "stateMutability": "view",
      "type": "function"
    },
    {
      "inputs": [],
      "name": "stableAddress",
      "outputs": [
        {
          "internalType": "contract IERC20",
          "name": "",
          "type": "address"
        }
      ],
      "stateMutability": "view",
      "type": "function"
    },
    {
      "inputs": [],
      "name": "symbol",
      "outputs": [
        {
          "internalType": "string",
          "name": "",
          "type": "string"
        }
      ],
      "stateMutability": "view",
      "type": "function"
    },
    {
      "inputs": [],
      "name": "tokenPrice",
      "outputs": [
        {
          "internalType": "uint256",
          "name": "",
          "type": "uint256"
        }
      ],
      "stateMutability": "view",
      "type": "function"
    },
    {
      "inputs": [],
      "name": "tokenSupply",
      "outputs": [
        {
          "internalType": "uint256",
          "name": "",
          "type": "uint256"
        }
      ],
      "stateMutability": "view",
      "type": "function"
    },
    {
      "inputs": [],
      "name": "totalSupply",
      "outputs": [
        {
          "internalType": "uint256",
          "name": "",
          "type": "uint256"
        }
      ],
      "stateMutability": "view",
      "type": "function"
    },
    {
      "inputs": [
        {
          "internalType": "address",
          "name": "to",
          "type": "address"
        },
        {
          "internalType": "uint256",
          "name": "amount",
          "type": "uint256"
        }
      ],
      "name": "transfer",
      "outputs": [
        {
          "internalType": "bool",
          "name": "",
          "type": "bool"
        }
      ],
      "stateMutability": "nonpayable",
      "type": "function"
    },
    {
      "inputs": [
        {
          "internalType": "address",
          "name": "from",
          "type": "address"
        },
        {
          "internalType": "address",
          "name": "to",
          "type": "address"
        },
        {
          "internalType": "uint256",
          "name": "amount",
          "type": "uint256"
        }
      ],
      "name": "transferFrom",
      "outputs": [
        {
          "internalType": "bool",
          "name": "",
          "type": "bool"
        }
      ],
      "stateMutability": "nonpayable",
      "type": "function"
    },
    {
      "inputs": [],
      "name": "issueTokens",
      "outputs": [],
      "stateMutability": "nonpayable",
      "type": "function"
    },
    {
      "inputs": [
        {
          "internalType": "uint256",
          "name": "shareQty",
          "type": "uint256"
        }
      ],
      "name": "buyTokens",
      "outputs": [],
      "stateMutability": "nonpayable",
      "type": "function"
    },
    {
      "inputs": [
        {
          "internalType": "uint256",
          "name": "shareQty",
          "type": "uint256"
        }
      ],
      "name": "sellTokens",
      "outputs": [],
      "stateMutability": "nonpayable",
      "type": "function"
    }
  ],
  "bytecode": "0x60806040523480156200001157600080fd5b50604051620026ce380380620026ce83398181016040528101906200003791906200044f565b888881600390805190602001906200005192919062000162565b5080600490805190602001906200006a92919062000162565b5050508560098190555086600b60006101000a81548173ffffffffffffffffffffffffffffffffffffffff021916908373ffffffffffffffffffffffffffffffffffffffff160217905550846005819055508360068190555082600c60006101000a81548173ffffffffffffffffffffffffffffffffffffffff021916908373ffffffffffffffffffffffffffffffffffffffff16021790555033600d60006101000a81548173ffffffffffffffffffffffffffffffffffffffff021916908373ffffffffffffffffffffffffffffffffffffffff1602179055508160088190555080600a81905550505050505050505050620005d0565b82805462000170906200059b565b90600052602060002090601f016020900481019282620001945760008555620001e0565b82601f10620001af57805160ff1916838001178555620001e0565b82800160010185558215620001e0579182015b82811115620001df578251825591602001919060010190620001c2565b5b509050620001ef9190620001f3565b5090565b5b808211156200020e576000816000905550600101620001f4565b5090565b6000604051905090565b600080fd5b600080fd5b600080fd5b600080fd5b6000601f19601f8301169050919050565b7f4e487b7100000000000000000000000000000000000000000000000000000000600052604160045260246000fd5b6200027b8262000230565b810181811067ffffffffffffffff821117156200029d576200029c62000241565b5b80604052505050565b6000620002b262000212565b9050620002c0828262000270565b919050565b600067ffffffffffffffff821115620002e357620002e262000241565b5b620002ee8262000230565b9050602081019050919050565b60005b838110156200031b578082015181840152602081019050620002fe565b838111156200032b576000848401525b50505050565b6000620003486200034284620002c5565b620002a6565b9050828152602081018484840111156200036757620003666200022b565b5b62000374848285620002fb565b509392505050565b600082601f83011262000394576200039362000226565b5b8151620003a684826020860162000331565b91505092915050565b600073ffffffffffffffffffffffffffffffffffffffff82169050919050565b6000620003dc82620003af565b9050919050565b620003ee81620003cf565b8114620003fa57600080fd5b50565b6000815190506200040e81620003e3565b92915050565b6000819050919050565b620004298162000414565b81146200043557600080fd5b50565b60008151905062000449816200041e565b92915050565b60008060008060008060008060006101208a8c0312156200047557620004746200021c565b5b60008a015167ffffffffffffffff81111562000496576200049562000221565b5b620004a48c828d016200037c565b99505060208a015167ffffffffffffffff811115620004c857620004c762000221565b5b620004d68c828d016200037c565b9850506040620004e98c828d01620003fd565b9750506060620004fc8c828d0162000438565b96505060806200050f8c828d0162000438565b95505060a0620005228c828d0162000438565b94505060c0620005358c828d01620003fd565b93505060e0620005488c828d0162000438565b9250506101006200055c8c828d0162000438565b9150509295985092959850929598565b7f4e487b7100000000000000000000000000000000000000000000000000000000600052602260045260246000fd5b60006002820490506001821680620005b457607f821691505b602082108103620005ca57620005c96200056c565b5b50919050565b6120ee80620005e06000396000f3fe608060405234801561001057600080fd5b50600436106101735760003560e01c80636b165795116100de578063a457c2d711610097578063c6bc518211610071578063c6bc518214610454578063d52d6c9114610472578063dd62ed3e14610490578063f2e25042146104c057610173565b8063a457c2d7146103d6578063a9059cbb14610406578063c4c6c2371461043657610173565b80636b165795146103125780636c11bcd31461033057806370a082311461034c5780637824407f1461037c5780637ff9b5961461039a57806395d89b41146103b857610173565b80633950935111610130578063395093511461024e57806344658e011461027e57806347ccca02146102ae578063507a7328146102cc5780635b208b88146102ea57806360ab58521461030857610173565b806306fdde0314610178578063095ea7b31461019657806318160ddd146101c657806323b872dd146101e4578063313ce567146102145780633610724e14610232575b600080fd5b6101806104f0565b60405161018d91906114d0565b60405180910390f35b6101b060048036038101906101ab919061158b565b610582565b6040516101bd91906115e6565b60405180910390f35b6101ce6105a5565b6040516101db9190611610565b60405180910390f35b6101fe60048036038101906101f9919061162b565b6105af565b60405161020b91906115e6565b60405180910390f35b61021c6105de565b604051610229919061169a565b60405180910390f35b61024c600480360381019061024791906116b5565b6105e7565b005b6102686004803603810190610263919061158b565b6107e1565b60405161027591906115e6565b60405180910390f35b610298600480360381019061029391906116e2565b610818565b6040516102a59190611610565b60405180910390f35b6102b6610830565b6040516102c3919061176e565b60405180910390f35b6102d4610856565b6040516102e19190611610565b60405180910390f35b6102f261085c565b6040516102ff9190611610565b60405180910390f35b610310610862565b005b61031a610919565b6040516103279190611610565b60405180910390f35b61034a600480360381019061034591906116b5565b61091f565b005b610366600480360381019061036191906116e2565b610b79565b6040516103739190611610565b60405180910390f35b610384610bc1565b6040516103919190611610565b60405180910390f35b6103a2610bc7565b6040516103af9190611610565b60405180910390f35b6103c0610bcd565b6040516103cd91906114d0565b60405180910390f35b6103f060048036038101906103eb919061158b565b610c5f565b6040516103fd91906115e6565b60405180910390f35b610420600480360381019061041b919061158b565b610cd6565b60405161042d91906115e6565b60405180910390f35b61043e610cf9565b60405161044b91906117aa565b60405180910390f35b61045c610d1f565b6040516104699190611610565b60405180910390f35b61047a610d25565b60405161048791906117d4565b60405180910390f35b6104aa60048036038101906104a591906117ef565b610d4b565b6040516104b79190611610565b60405180910390f35b6104da60048036038101906104d591906116e2565b610dd2565b6040516104e791906115e6565b60405180910390f35b6060600380546104ff9061185e565b80601f016020809104026020016040519081016040528092919081815260200182805461052b9061185e565b80156105785780601f1061054d57610100808354040283529160200191610578565b820191906000526020600020905b81548152906001019060200180831161055b57829003601f168201915b5050505050905090565b60008061058d610df2565b905061059a818585610dfa565b600191505092915050565b6000600254905090565b6000806105ba610df2565b90506105c7858285610fc3565b6105d285858561104f565b60019150509392505050565b60006012905090565b60006007541161062c576040517f08c379a0000000000000000000000000000000000000000000000000000000008152600401610623906118db565b60405180910390fd5b600754421115610671576040517f08c379a000000000000000000000000000000000000000000000000000000000815260040161066890611947565b60405180910390fd5b6006548161067d6105a5565b6106879190611996565b11156106c8576040517f08c379a00000000000000000000000000000000000000000000000000000000081526004016106bf90611a38565b60405180910390fd5b6000600554826106d89190611a58565b9050600c60009054906101000a900473ffffffffffffffffffffffffffffffffffffffff1673ffffffffffffffffffffffffffffffffffffffff166323b872dd3330846040518463ffffffff1660e01b815260040161073993929190611ab2565b6020604051808303816000875af1158015610758573d6000803e3d6000fd5b505050506040513d601f19601f8201168201806040525081019061077c9190611b15565b5061078733836112ce565b81600f60003373ffffffffffffffffffffffffffffffffffffffff1673ffffffffffffffffffffffffffffffffffffffff16815260200190815260200160002060008282546107d69190611996565b925050819055505050565b6000806107ec610df2565b905061080d8185856107fe8589610d4b565b6108089190611996565b610dfa565b600191505092915050565b600f6020528060005260406000206000915090505481565b600b60009054906101000a900473ffffffffffffffffffffffffffffffffffffffff1681565b60075481565b600a5481565b600b60009054906101000a900473ffffffffffffffffffffffffffffffffffffffff1673ffffffffffffffffffffffffffffffffffffffff166323b872dd33306009546040518463ffffffff1660e01b81526004016108c393929190611ab2565b600060405180830381600087803b1580156108dd57600080fd5b505af11580156108f1573d6000803e3d6000fd5b50505050620151806008546109069190611a58565b426109119190611996565b600781905550565b60085481565b600e60003373ffffffffffffffffffffffffffffffffffffffff1673ffffffffffffffffffffffffffffffffffffffff16815260200190815260200160002060009054906101000a900460ff166109ab576040517f08c379a00000000000000000000000000000000000000000000000000000000081526004016109a290611b8e565b60405180910390fd5b6000600754116109f0576040517f08c379a00000000000000000000000000000000000000000000000000000000081526004016109e7906118db565b60405180910390fd5b600754421115610a35576040517f08c379a0000000000000000000000000000000000000000000000000000000008152600401610a2c90611947565b60405180910390fd5b80600f60003373ffffffffffffffffffffffffffffffffffffffff1673ffffffffffffffffffffffffffffffffffffffff168152602001908152602001600020541115610ab7576040517f08c379a0000000000000000000000000000000000000000000000000000000008152600401610aae90611c20565b60405180910390fd5b600d60009054906101000a900473ffffffffffffffffffffffffffffffffffffffff1673ffffffffffffffffffffffffffffffffffffffff166108fc829081150290604051600060405180830381858888f19350505050158015610b1f573d6000803e3d6000fd5b5080600f60003373ffffffffffffffffffffffffffffffffffffffff1673ffffffffffffffffffffffffffffffffffffffff1681526020019081526020016000206000828254610b6f9190611c40565b9250508190555050565b60008060008373ffffffffffffffffffffffffffffffffffffffff1673ffffffffffffffffffffffffffffffffffffffff168152602001908152602001600020549050919050565b60065481565b60055481565b606060048054610bdc9061185e565b80601f0160208091040260200160405190810160405280929190818152602001828054610c089061185e565b8015610c555780601f10610c2a57610100808354040283529160200191610c55565b820191906000526020600020905b815481529060010190602001808311610c3857829003601f168201915b5050505050905090565b600080610c6a610df2565b90506000610c788286610d4b565b905083811015610cbd576040517f08c379a0000000000000000000000000000000000000000000000000000000008152600401610cb490611ce6565b60405180910390fd5b610cca8286868403610dfa565b60019250505092915050565b600080610ce1610df2565b9050610cee81858561104f565b600191505092915050565b600c60009054906101000a900473ffffffffffffffffffffffffffffffffffffffff1681565b60095481565b600d60009054906101000a900473ffffffffffffffffffffffffffffffffffffffff1681565b6000600160008473ffffffffffffffffffffffffffffffffffffffff1673ffffffffffffffffffffffffffffffffffffffff16815260200190815260200160002060008373ffffffffffffffffffffffffffffffffffffffff1673ffffffffffffffffffffffffffffffffffffffff16815260200190815260200160002054905092915050565b600e6020528060005260406000206000915054906101000a900460ff1681565b600033905090565b600073ffffffffffffffffffffffffffffffffffffffff168373ffffffffffffffffffffffffffffffffffffffff1603610e69576040517f08c379a0000000000000000000000000000000000000000000000000000000008152600401610e6090611d78565b60405180910390fd5b600073ffffffffffffffffffffffffffffffffffffffff168273ffffffffffffffffffffffffffffffffffffffff1603610ed8576040517f08c379a0000000000000000000000000000000000000000000000000000000008152600401610ecf90611e0a565b60405180910390fd5b80600160008573ffffffffffffffffffffffffffffffffffffffff1673ffffffffffffffffffffffffffffffffffffffff16815260200190815260200160002060008473ffffffffffffffffffffffffffffffffffffffff1673ffffffffffffffffffffffffffffffffffffffff168152602001908152602001600020819055508173ffffffffffffffffffffffffffffffffffffffff168373ffffffffffffffffffffffffffffffffffffffff167f8c5be1e5ebec7d5bd14f71427d1e84f3dd0314c0f7b2291e5b200ac8c7c3b92583604051610fb69190611610565b60405180910390a3505050565b6000610fcf8484610d4b565b90507fffffffffffffffffffffffffffffffffffffffffffffffffffffffffffffffff8114611049578181101561103b576040517f08c379a000000000000000000000000000000000000000000000000000000000815260040161103290611e76565b60405180910390fd5b6110488484848403610dfa565b5b50505050565b600073ffffffffffffffffffffffffffffffffffffffff168373ffffffffffffffffffffffffffffffffffffffff16036110be576040517f08c379a00000000000000000000000000000000000000000000000000000000081526004016110b590611f08565b60405180910390fd5b600073ffffffffffffffffffffffffffffffffffffffff168273ffffffffffffffffffffffffffffffffffffffff160361112d576040517f08c379a000000000000000000000000000000000000000000000000000000000815260040161112490611f9a565b60405180910390fd5b61113883838361142d565b60008060008573ffffffffffffffffffffffffffffffffffffffff1673ffffffffffffffffffffffffffffffffffffffff168152602001908152602001600020549050818110156111be576040517f08c379a00000000000000000000000000000000000000000000000000000000081526004016111b59061202c565b60405180910390fd5b8181036000808673ffffffffffffffffffffffffffffffffffffffff1673ffffffffffffffffffffffffffffffffffffffff16815260200190815260200160002081905550816000808573ffffffffffffffffffffffffffffffffffffffff1673ffffffffffffffffffffffffffffffffffffffff16815260200190815260200160002060008282546112519190611996565b925050819055508273ffffffffffffffffffffffffffffffffffffffff168473ffffffffffffffffffffffffffffffffffffffff167fddf252ad1be2c89b69c2b068fc378daa952ba7f163c4a11628f55a4df523b3ef846040516112b59190611610565b60405180910390a36112c8848484611432565b50505050565b600073ffffffffffffffffffffffffffffffffffffffff168273ffffffffffffffffffffffffffffffffffffffff160361133d576040517f08c379a000000000000000000000000000000000000000000000000000000000815260040161133490612098565b60405180910390fd5b6113496000838361142d565b806002600082825461135b9190611996565b92505081905550806000808473ffffffffffffffffffffffffffffffffffffffff1673ffffffffffffffffffffffffffffffffffffffff16815260200190815260200160002060008282546113b09190611996565b925050819055508173ffffffffffffffffffffffffffffffffffffffff16600073ffffffffffffffffffffffffffffffffffffffff167fddf252ad1be2c89b69c2b068fc378daa952ba7f163c4a11628f55a4df523b3ef836040516114159190611610565b60405180910390a361142960008383611432565b5050565b505050565b505050565b600081519050919050565b600082825260208201905092915050565b60005b83811015611471578082015181840152602081019050611456565b83811115611480576000848401525b50505050565b6000601f19601f8301169050919050565b60006114a282611437565b6114ac8185611442565b93506114bc818560208601611453565b6114c581611486565b840191505092915050565b600060208201905081810360008301526114ea8184611497565b905092915050565b600080fd5b600073ffffffffffffffffffffffffffffffffffffffff82169050919050565b6000611522826114f7565b9050919050565b61153281611517565b811461153d57600080fd5b50565b60008135905061154f81611529565b92915050565b6000819050919050565b61156881611555565b811461157357600080fd5b50565b6000813590506115858161155f565b92915050565b600080604083850312156115a2576115a16114f2565b5b60006115b085828601611540565b92505060206115c185828601611576565b9150509250929050565b60008115159050919050565b6115e0816115cb565b82525050565b60006020820190506115fb60008301846115d7565b92915050565b61160a81611555565b82525050565b60006020820190506116256000830184611601565b92915050565b600080600060608486031215611644576116436114f2565b5b600061165286828701611540565b935050602061166386828701611540565b925050604061167486828701611576565b9150509250925092565b600060ff82169050919050565b6116948161167e565b82525050565b60006020820190506116af600083018461168b565b92915050565b6000602082840312156116cb576116ca6114f2565b5b60006116d984828501611576565b91505092915050565b6000602082840312156116f8576116f76114f2565b5b600061170684828501611540565b91505092915050565b6000819050919050565b600061173461172f61172a846114f7565b61170f565b6114f7565b9050919050565b600061174682611719565b9050919050565b60006117588261173b565b9050919050565b6117688161174d565b82525050565b6000602082019050611783600083018461175f565b92915050565b60006117948261173b565b9050919050565b6117a481611789565b82525050565b60006020820190506117bf600083018461179b565b92915050565b6117ce81611517565b82525050565b60006020820190506117e960008301846117c5565b92915050565b60008060408385031215611806576118056114f2565b5b600061181485828601611540565b925050602061182585828601611540565b9150509250929050565b7f4e487b7100000000000000000000000000000000000000000000000000000000600052602260045260246000fd5b6000600282049050600182168061187657607f821691505b6020821081036118895761188861182f565b5b50919050565b7f46756e64206e6f74207374617274656400000000000000000000000000000000600082015250565b60006118c5601083611442565b91506118d08261188f565b602082019050919050565b600060208201905081810360008301526118f4816118b8565b9050919050565b7f46756e64696e6720616c726561647920636c6f73656400000000000000000000600082015250565b6000611931601683611442565b915061193c826118fb565b602082019050919050565b6000602082019050818103600083015261196081611924565b9050919050565b7f4e487b7100000000000000000000000000000000000000000000000000000000600052601160045260246000fd5b60006119a182611555565b91506119ac83611555565b9250827fffffffffffffffffffffffffffffffffffffffffffffffffffffffffffffffff038211156119e1576119e0611967565b5b828201905092915050565b7f4e6f7420656e6f75676820746f6b656e20746f20627579000000000000000000600082015250565b6000611a22601783611442565b9150611a2d826119ec565b602082019050919050565b60006020820190508181036000830152611a5181611a15565b9050919050565b6000611a6382611555565b9150611a6e83611555565b9250817fffffffffffffffffffffffffffffffffffffffffffffffffffffffffffffffff0483118215151615611aa757611aa6611967565b5b828202905092915050565b6000606082019050611ac760008301866117c5565b611ad460208301856117c5565b611ae16040830184611601565b949350505050565b611af2816115cb565b8114611afd57600080fd5b50565b600081519050611b0f81611ae9565b92915050565b600060208284031215611b2b57611b2a6114f2565b5b6000611b3984828501611b00565b91505092915050565b7f4973206e6f7420616e20696e766573746f720000000000000000000000000000600082015250565b6000611b78601283611442565b9150611b8382611b42565b602082019050919050565b60006020820190508181036000830152611ba781611b6b565b9050919050565b7f496e766573746f7220657863656564206e756d626572206f6620746f6b656e7360008201527f2070757263686173656400000000000000000000000000000000000000000000602082015250565b6000611c0a602a83611442565b9150611c1582611bae565b604082019050919050565b60006020820190508181036000830152611c3981611bfd565b9050919050565b6000611c4b82611555565b9150611c5683611555565b925082821015611c6957611c68611967565b5b828203905092915050565b7f45524332303a2064656372656173656420616c6c6f77616e63652062656c6f7760008201527f207a65726f000000000000000000000000000000000000000000000000000000602082015250565b6000611cd0602583611442565b9150611cdb82611c74565b604082019050919050565b60006020820190508181036000830152611cff81611cc3565b9050919050565b7f45524332303a20617070726f76652066726f6d20746865207a65726f2061646460008201527f7265737300000000000000000000000000000000000000000000000000000000602082015250565b6000611d62602483611442565b9150611d6d82611d06565b604082019050919050565b60006020820190508181036000830152611d9181611d55565b9050919050565b7f45524332303a20617070726f766520746f20746865207a65726f20616464726560008201527f7373000000000000000000000000000000000000000000000000000000000000602082015250565b6000611df4602283611442565b9150611dff82611d98565b604082019050919050565b60006020820190508181036000830152611e2381611de7565b9050919050565b7f45524332303a20696e73756666696369656e7420616c6c6f77616e6365000000600082015250565b6000611e60601d83611442565b9150611e6b82611e2a565b602082019050919050565b60006020820190508181036000830152611e8f81611e53565b9050919050565b7f45524332303a207472616e736665722066726f6d20746865207a65726f20616460008201527f6472657373000000000000000000000000000000000000000000000000000000602082015250565b6000611ef2602583611442565b9150611efd82611e96565b604082019050919050565b60006020820190508181036000830152611f2181611ee5565b9050919050565b7f45524332303a207472616e7366657220746f20746865207a65726f206164647260008201527f6573730000000000000000000000000000000000000000000000000000000000602082015250565b6000611f84602383611442565b9150611f8f82611f28565b604082019050919050565b60006020820190508181036000830152611fb381611f77565b9050919050565b7f45524332303a207472616e7366657220616d6f756e742065786365656473206260008201527f616c616e63650000000000000000000000000000000000000000000000000000602082015250565b6000612016602683611442565b915061202182611fba565b604082019050919050565b6000602082019050818103600083015261204581612009565b9050919050565b7f45524332303a206d696e7420746f20746865207a65726f206164647265737300600082015250565b6000612082601f83611442565b915061208d8261204c565b602082019050919050565b600060208201905081810360008301526120b181612075565b905091905056fea2646970667358221220f2cb5ae685d2a934847c1d43b743f447d7241c958de8bf1e33b713377d1bfd3664736f6c634300080d0033",
  "immutableReferences": {},
  "source": "// SPDX-License-Identifier: MIT\r\npragma solidity ^0.8.13;\r\n\r\nimport '@openzeppelin/contracts/token/ERC721/IERC721.sol';\r\nimport '@openzeppelin/contracts/token/ERC20/ERC20.sol';\r\nimport '@openzeppelin/contracts/token/ERC20/IERC20.sol';\r\n\r\ncontract TokenizeNFT is ERC20 {\r\n    uint256 public tokenPrice;\r\n    uint256 public tokenSupply;\r\n\r\n    // End of funding Open in days\r\n    uint public closePeriod;\r\n    uint public numDaysToClose;\r\n    uint public nftId;\r\n    uint public minAmtRaise; // need to raise at least this much\r\n\r\n    IERC721 public nft;\r\n    IERC20 public stableAddress; //USDC, USDT, DAI\r\n\r\n    address public contractIssuer; //YS issuer\r\n    mapping(address => bool) public _investors;\r\n    mapping(address => uint) public _investorBalance;\r\n\r\n    constructor(\r\n        string memory _name,\r\n        string memory _symbol,\r\n        address _nftAddress,\r\n        uint _nftId,\r\n        uint _tokenPrice,\r\n        uint _tokenSupply,\r\n        address _stableAddress,\r\n        uint _numDaysToClose,\r\n        uint _minAmtRaise\r\n    )\r\n\r\n    ERC20(_name, _symbol) \r\n    {\r\n        nftId = _nftId;\r\n        nft = IERC721(_nftAddress);\r\n        tokenPrice = _tokenPrice;\r\n        tokenSupply = _tokenSupply;\r\n        stableAddress = IERC20(_stableAddress);\r\n        contractIssuer = msg.sender;\r\n        numDaysToClose = _numDaysToClose;\r\n        minAmtRaise = _minAmtRaise;\r\n    }\r\n\r\n    // You are an investor only when you purchase.\r\n    // can YS admin be its own investor?\r\n    modifier isInvestor() {\r\n        require( _investors[msg.sender] , \"Is not an investor\");\r\n        _;\r\n    }\r\n\r\n    modifier isIssuer() {\r\n        require(msg.sender == contractIssuer, \"Is not issuer\");\r\n        _;\r\n    }\r\n\r\n    /**\r\n     Issues the number of tokens based on the NFT\r\n     */\r\n    function issueTokens() external {\r\n        nft.transferFrom(msg.sender, address(this), nftId);\r\n        closePeriod = block.timestamp + numDaysToClose * 86400;\r\n    }\r\n\r\n    /**\r\n    Investor buys the number of desire tokens. \r\n    Checks if the fund has enough for user's desired amt to purchase\r\n     */\r\n    function buyTokens(uint shareQty) external { \r\n        require(closePeriod > 0, 'Fund not started');\r\n        require(block.timestamp <= closePeriod, 'Funding already closed');\r\n        require(totalSupply() + shareQty <= tokenSupply, 'Not enough token to buy');\r\n        uint stableAmt = shareQty * tokenPrice;\r\n        stableAddress.transferFrom(msg.sender, address(this), stableAmt);\r\n        _mint(msg.sender, shareQty);\r\n        _investorBalance[msg.sender] += shareQty;\r\n    }\r\n\r\n    /**\r\n    Investor buys the number of desire tokens. \r\n    Checks if the fund has enough for user's desired amt to purchase\r\n     */\r\n    function sellTokens(uint shareQty) isInvestor external { \r\n        require(closePeriod > 0, 'Fund not started');\r\n        require(block.timestamp <= closePeriod, 'Funding already closed');\r\n        require(_investorBalance[msg.sender] <= shareQty, 'Investor exceed number of tokens purchased');\r\n        payable(contractIssuer).transfer(shareQty);\r\n        _investorBalance[msg.sender] -= shareQty;\r\n    }\r\n\r\n    /**\r\n    YS takes proceeds for usage.\r\n    Condition: fund needs to be fulfilled and period is after closePeriod (since investor can change their mind).\r\n     */\r\n    // function withdrawProceeds() isIssuer external {\r\n    //     require()\r\n    // }\r\n\r\n\r\n}\r\n\r\n\r\n\r\n",
  "sourcePath": "C:\\Users\\JaimeLynn\\Desktop\\Project\\token-nft\\contracts\\token.sol",
  "compiler": {
    "name": "solc",
    "version": "0.8.13+commit.abaa5c0e.Emscripten.clang"
  },
  "schemaVersion": "3.4.7",
  "updatedAt": "2022-05-16T14:49:55.565Z",
  "devdoc": {
    "kind": "dev",
    "methods": {
      "allowance(address,address)": {
        "details": "See {IERC20-allowance}."
      },
      "approve(address,uint256)": {
        "details": "See {IERC20-approve}. NOTE: If `amount` is the maximum `uint256`, the allowance is not updated on `transferFrom`. This is semantically equivalent to an infinite approval. Requirements: - `spender` cannot be the zero address."
      },
      "balanceOf(address)": {
        "details": "See {IERC20-balanceOf}."
      },
      "decimals()": {
        "details": "Returns the number of decimals used to get its user representation. For example, if `decimals` equals `2`, a balance of `505` tokens should be displayed to a user as `5.05` (`505 / 10 ** 2`). Tokens usually opt for a value of 18, imitating the relationship between Ether and Wei. This is the value {ERC20} uses, unless this function is overridden; NOTE: This information is only used for _display_ purposes: it in no way affects any of the arithmetic of the contract, including {IERC20-balanceOf} and {IERC20-transfer}."
      },
      "decreaseAllowance(address,uint256)": {
        "details": "Atomically decreases the allowance granted to `spender` by the caller. This is an alternative to {approve} that can be used as a mitigation for problems described in {IERC20-approve}. Emits an {Approval} event indicating the updated allowance. Requirements: - `spender` cannot be the zero address. - `spender` must have allowance for the caller of at least `subtractedValue`."
      },
      "increaseAllowance(address,uint256)": {
        "details": "Atomically increases the allowance granted to `spender` by the caller. This is an alternative to {approve} that can be used as a mitigation for problems described in {IERC20-approve}. Emits an {Approval} event indicating the updated allowance. Requirements: - `spender` cannot be the zero address."
      },
      "name()": {
        "details": "Returns the name of the token."
      },
      "symbol()": {
        "details": "Returns the symbol of the token, usually a shorter version of the name."
      },
      "totalSupply()": {
        "details": "See {IERC20-totalSupply}."
      },
      "transfer(address,uint256)": {
        "details": "See {IERC20-transfer}. Requirements: - `to` cannot be the zero address. - the caller must have a balance of at least `amount`."
      },
      "transferFrom(address,address,uint256)": {
        "details": "See {IERC20-transferFrom}. Emits an {Approval} event indicating the updated allowance. This is not required by the EIP. See the note at the beginning of {ERC20}. NOTE: Does not update the allowance if the current allowance is the maximum `uint256`. Requirements: - `from` and `to` cannot be the zero address. - `from` must have a balance of at least `amount`. - the caller must have allowance for ``from``'s tokens of at least `amount`."
      }
    },
    "version": 1
  },
  "userdoc": {
    "kind": "user",
    "methods": {
      "buyTokens(uint256)": {
        "notice": "Investor buys the number of desire tokens.  Checks if the fund has enough for user's desired amt to purchase"
      },
      "issueTokens()": {
        "notice": "Issues the number of tokens based on the NFT"
      },
      "sellTokens(uint256)": {
        "notice": "Investor buys the number of desire tokens.  Checks if the fund has enough for user's desired amt to purchase"
      }
    },
    "version": 1
  }
}