{
  "contractName": "TokenizeNFT",
  "abi": [
    {
      "inputs": [
        {
          "internalType": "string",
          "name": "_name",
          "type": "string"
        },
        {
          "internalType": "string",
          "name": "_symbol",
          "type": "string"
        },
        {
          "internalType": "address",
          "name": "_nftAddress",
          "type": "address"
        },
        {
          "internalType": "uint256",
          "name": "_nftId",
          "type": "uint256"
        },
        {
          "internalType": "uint256",
          "name": "_tokenPrice",
          "type": "uint256"
        },
        {
          "internalType": "uint256",
          "name": "_tokenSupply",
          "type": "uint256"
        },
        {
          "internalType": "address",
          "name": "_stableAddress",
          "type": "address"
        },
        {
          "internalType": "uint256",
          "name": "_numDaysToClose",
          "type": "uint256"
        },
        {
          "internalType": "uint256",
          "name": "_minAmtRaise",
          "type": "uint256"
        }
      ],
      "stateMutability": "nonpayable",
      "type": "constructor"
    },
    {
      "anonymous": false,
      "inputs": [
        {
          "indexed": true,
          "internalType": "address",
          "name": "owner",
          "type": "address"
        },
        {
          "indexed": true,
          "internalType": "address",
          "name": "spender",
          "type": "address"
        },
        {
          "indexed": false,
          "internalType": "uint256",
          "name": "value",
          "type": "uint256"
        }
      ],
      "name": "Approval",
      "type": "event"
    },
    {
      "anonymous": false,
      "inputs": [
        {
          "indexed": true,
          "internalType": "address",
          "name": "from",
          "type": "address"
        },
        {
          "indexed": true,
          "internalType": "address",
          "name": "to",
          "type": "address"
        },
        {
          "indexed": false,
          "internalType": "uint256",
          "name": "value",
          "type": "uint256"
        }
      ],
      "name": "Transfer",
      "type": "event"
    },
    {
      "inputs": [
        {
          "internalType": "address",
          "name": "",
          "type": "address"
        }
      ],
      "name": "_investors",
      "outputs": [
        {
          "internalType": "bool",
          "name": "",
          "type": "bool"
        }
      ],
      "stateMutability": "view",
      "type": "function"
    },
    {
      "inputs": [
        {
          "internalType": "address",
          "name": "owner",
          "type": "address"
        },
        {
          "internalType": "address",
          "name": "spender",
          "type": "address"
        }
      ],
      "name": "allowance",
      "outputs": [
        {
          "internalType": "uint256",
          "name": "",
          "type": "uint256"
        }
      ],
      "stateMutability": "view",
      "type": "function"
    },
    {
      "inputs": [
        {
          "internalType": "address",
          "name": "spender",
          "type": "address"
        },
        {
          "internalType": "uint256",
          "name": "amount",
          "type": "uint256"
        }
      ],
      "name": "approve",
      "outputs": [
        {
          "internalType": "bool",
          "name": "",
          "type": "bool"
        }
      ],
      "stateMutability": "nonpayable",
      "type": "function"
    },
    {
      "inputs": [
        {
          "internalType": "address",
          "name": "account",
          "type": "address"
        }
      ],
      "name": "balanceOf",
      "outputs": [
        {
          "internalType": "uint256",
          "name": "",
          "type": "uint256"
        }
      ],
      "stateMutability": "view",
      "type": "function"
    },
    {
      "inputs": [],
      "name": "closePeriod",
      "outputs": [
        {
          "internalType": "uint256",
          "name": "",
          "type": "uint256"
        }
      ],
      "stateMutability": "view",
      "type": "function"
    },
    {
      "inputs": [],
      "name": "contractIssuer",
      "outputs": [
        {
          "internalType": "address",
          "name": "",
          "type": "address"
        }
      ],
      "stateMutability": "view",
      "type": "function"
    },
    {
      "inputs": [],
      "name": "decimals",
      "outputs": [
        {
          "internalType": "uint8",
          "name": "",
          "type": "uint8"
        }
      ],
      "stateMutability": "view",
      "type": "function"
    },
    {
      "inputs": [
        {
          "internalType": "address",
          "name": "spender",
          "type": "address"
        },
        {
          "internalType": "uint256",
          "name": "subtractedValue",
          "type": "uint256"
        }
      ],
      "name": "decreaseAllowance",
      "outputs": [
        {
          "internalType": "bool",
          "name": "",
          "type": "bool"
        }
      ],
      "stateMutability": "nonpayable",
      "type": "function"
    },
    {
      "inputs": [
        {
          "internalType": "address",
          "name": "spender",
          "type": "address"
        },
        {
          "internalType": "uint256",
          "name": "addedValue",
          "type": "uint256"
        }
      ],
      "name": "increaseAllowance",
      "outputs": [
        {
          "internalType": "bool",
          "name": "",
          "type": "bool"
        }
      ],
      "stateMutability": "nonpayable",
      "type": "function"
    },
    {
      "inputs": [],
      "name": "minAmtRaise",
      "outputs": [
        {
          "internalType": "uint256",
          "name": "",
          "type": "uint256"
        }
      ],
      "stateMutability": "view",
      "type": "function"
    },
    {
      "inputs": [],
      "name": "name",
      "outputs": [
        {
          "internalType": "string",
          "name": "",
          "type": "string"
        }
      ],
      "stateMutability": "view",
      "type": "function"
    },
    {
      "inputs": [],
      "name": "nft",
      "outputs": [
        {
          "internalType": "contract IERC721",
          "name": "",
          "type": "address"
        }
      ],
      "stateMutability": "view",
      "type": "function"
    },
    {
      "inputs": [],
      "name": "nftId",
      "outputs": [
        {
          "internalType": "uint256",
          "name": "",
          "type": "uint256"
        }
      ],
      "stateMutability": "view",
      "type": "function"
    },
    {
      "inputs": [],
      "name": "numDaysToClose",
      "outputs": [
        {
          "internalType": "uint256",
          "name": "",
          "type": "uint256"
        }
      ],
      "stateMutability": "view",
      "type": "function"
    },
    {
      "inputs": [],
      "name": "stableAddress",
      "outputs": [
        {
          "internalType": "contract IERC20",
          "name": "",
          "type": "address"
        }
      ],
      "stateMutability": "view",
      "type": "function"
    },
    {
      "inputs": [],
      "name": "symbol",
      "outputs": [
        {
          "internalType": "string",
          "name": "",
          "type": "string"
        }
      ],
      "stateMutability": "view",
      "type": "function"
    },
    {
      "inputs": [],
      "name": "tokenPrice",
      "outputs": [
        {
          "internalType": "uint256",
          "name": "",
          "type": "uint256"
        }
      ],
      "stateMutability": "view",
      "type": "function"
    },
    {
      "inputs": [],
      "name": "tokenSupply",
      "outputs": [
        {
          "internalType": "uint256",
          "name": "",
          "type": "uint256"
        }
      ],
      "stateMutability": "view",
      "type": "function"
    },
    {
      "inputs": [],
      "name": "totalSupply",
      "outputs": [
        {
          "internalType": "uint256",
          "name": "",
          "type": "uint256"
        }
      ],
      "stateMutability": "view",
      "type": "function"
    },
    {
      "inputs": [
        {
          "internalType": "address",
          "name": "to",
          "type": "address"
        },
        {
          "internalType": "uint256",
          "name": "amount",
          "type": "uint256"
        }
      ],
      "name": "transfer",
      "outputs": [
        {
          "internalType": "bool",
          "name": "",
          "type": "bool"
        }
      ],
      "stateMutability": "nonpayable",
      "type": "function"
    },
    {
      "inputs": [
        {
          "internalType": "address",
          "name": "from",
          "type": "address"
        },
        {
          "internalType": "address",
          "name": "to",
          "type": "address"
        },
        {
          "internalType": "uint256",
          "name": "amount",
          "type": "uint256"
        }
      ],
      "name": "transferFrom",
      "outputs": [
        {
          "internalType": "bool",
          "name": "",
          "type": "bool"
        }
      ],
      "stateMutability": "nonpayable",
      "type": "function"
    },
    {
      "inputs": [
        {
          "internalType": "address",
          "name": "user",
          "type": "address"
        }
      ],
      "name": "addInvestor",
      "outputs": [],
      "stateMutability": "nonpayable",
      "type": "function"
    },
    {
      "inputs": [
        {
          "internalType": "address",
          "name": "user",
          "type": "address"
        }
      ],
      "name": "removeInvestor",
      "outputs": [],
      "stateMutability": "nonpayable",
      "type": "function"
    },
    {
      "inputs": [],
      "name": "issueTokens",
      "outputs": [],
      "stateMutability": "nonpayable",
      "type": "function"
    },
    {
      "inputs": [
        {
          "internalType": "uint256",
          "name": "shareQty",
          "type": "uint256"
        }
      ],
      "name": "buyTokens",
      "outputs": [],
      "stateMutability": "nonpayable",
      "type": "function"
    },
    {
      "inputs": [
        {
          "internalType": "uint256",
          "name": "shareQty",
          "type": "uint256"
        }
      ],
      "name": "sellTokens",
      "outputs": [],
      "stateMutability": "nonpayable",
      "type": "function"
    }
  ],
  "bytecode": "0x60806040523480156200001157600080fd5b50604051620026e7380380620026e783398181016040528101906200003791906200044f565b888881600390805190602001906200005192919062000162565b5080600490805190602001906200006a92919062000162565b5050508560098190555086600b60006101000a81548173ffffffffffffffffffffffffffffffffffffffff021916908373ffffffffffffffffffffffffffffffffffffffff160217905550846005819055508360068190555082600c60006101000a81548173ffffffffffffffffffffffffffffffffffffffff021916908373ffffffffffffffffffffffffffffffffffffffff16021790555033600d60006101000a81548173ffffffffffffffffffffffffffffffffffffffff021916908373ffffffffffffffffffffffffffffffffffffffff1602179055508160088190555080600a81905550505050505050505050620005d0565b82805462000170906200059b565b90600052602060002090601f016020900481019282620001945760008555620001e0565b82601f10620001af57805160ff1916838001178555620001e0565b82800160010185558215620001e0579182015b82811115620001df578251825591602001919060010190620001c2565b5b509050620001ef9190620001f3565b5090565b5b808211156200020e576000816000905550600101620001f4565b5090565b6000604051905090565b600080fd5b600080fd5b600080fd5b600080fd5b6000601f19601f8301169050919050565b7f4e487b7100000000000000000000000000000000000000000000000000000000600052604160045260246000fd5b6200027b8262000230565b810181811067ffffffffffffffff821117156200029d576200029c62000241565b5b80604052505050565b6000620002b262000212565b9050620002c0828262000270565b919050565b600067ffffffffffffffff821115620002e357620002e262000241565b5b620002ee8262000230565b9050602081019050919050565b60005b838110156200031b578082015181840152602081019050620002fe565b838111156200032b576000848401525b50505050565b6000620003486200034284620002c5565b620002a6565b9050828152602081018484840111156200036757620003666200022b565b5b62000374848285620002fb565b509392505050565b600082601f83011262000394576200039362000226565b5b8151620003a684826020860162000331565b91505092915050565b600073ffffffffffffffffffffffffffffffffffffffff82169050919050565b6000620003dc82620003af565b9050919050565b620003ee81620003cf565b8114620003fa57600080fd5b50565b6000815190506200040e81620003e3565b92915050565b6000819050919050565b620004298162000414565b81146200043557600080fd5b50565b60008151905062000449816200041e565b92915050565b60008060008060008060008060006101208a8c0312156200047557620004746200021c565b5b60008a015167ffffffffffffffff81111562000496576200049562000221565b5b620004a48c828d016200037c565b99505060208a015167ffffffffffffffff811115620004c857620004c762000221565b5b620004d68c828d016200037c565b9850506040620004e98c828d01620003fd565b9750506060620004fc8c828d0162000438565b96505060806200050f8c828d0162000438565b95505060a0620005228c828d0162000438565b94505060c0620005358c828d01620003fd565b93505060e0620005488c828d0162000438565b9250506101006200055c8c828d0162000438565b9150509295985092959850929598565b7f4e487b7100000000000000000000000000000000000000000000000000000000600052602260045260246000fd5b60006002820490506001821680620005b457607f821691505b602082108103620005ca57620005c96200056c565b5b50919050565b61210780620005e06000396000f3fe608060405234801561001057600080fd5b506004361061018e5760003560e01c80636c11bcd3116100de578063a9059cbb11610097578063d52d6c9111610071578063d52d6c9114610479578063dd62ed3e14610497578063e641bde1146104c7578063f2e25042146104e35761018e565b8063a9059cbb1461040d578063c4c6c2371461043d578063c6bc51821461045b5761018e565b80636c11bcd31461033757806370a08231146103535780637824407f146103835780637ff9b596146103a157806395d89b41146103bf578063a457c2d7146103dd5761018e565b8063395093511161014b578063507a732811610125578063507a7328146102d35780635b208b88146102f157806360ab58521461030f5780636b165795146103195761018e565b80633950935114610269578063427149781461029957806347ccca02146102b55761018e565b806306fdde0314610193578063095ea7b3146101b157806318160ddd146101e157806323b872dd146101ff578063313ce5671461022f5780633610724e1461024d575b600080fd5b61019b610513565b6040516101a891906115af565b60405180910390f35b6101cb60048036038101906101c6919061166a565b6105a5565b6040516101d891906116c5565b60405180910390f35b6101e96105c8565b6040516101f691906116ef565b60405180910390f35b6102196004803603810190610214919061170a565b6105d2565b60405161022691906116c5565b60405180910390f35b610237610601565b6040516102449190611779565b60405180910390f35b61026760048036038101906102629190611794565b61060a565b005b610283600480360381019061027e919061166a565b6107b7565b60405161029091906116c5565b60405180910390f35b6102b360048036038101906102ae91906117c1565b6107ee565b005b6102bd6108d5565b6040516102ca919061184d565b60405180910390f35b6102db6108fb565b6040516102e891906116ef565b60405180910390f35b6102f9610901565b60405161030691906116ef565b60405180910390f35b610317610907565b005b6103216109be565b60405161032e91906116ef565b60405180910390f35b610351600480360381019061034c9190611794565b6109c4565b005b61036d600480360381019061036891906117c1565b610bfd565b60405161037a91906116ef565b60405180910390f35b61038b610c45565b60405161039891906116ef565b60405180910390f35b6103a9610c4b565b6040516103b691906116ef565b60405180910390f35b6103c7610c51565b6040516103d491906115af565b60405180910390f35b6103f760048036038101906103f2919061166a565b610ce3565b60405161040491906116c5565b60405180910390f35b6104276004803603810190610422919061166a565b610d5a565b60405161043491906116c5565b60405180910390f35b610445610d7d565b6040516104529190611889565b60405180910390f35b610463610da3565b60405161047091906116ef565b60405180910390f35b610481610da9565b60405161048e91906118b3565b60405180910390f35b6104b160048036038101906104ac91906118ce565b610dcf565b6040516104be91906116ef565b60405180910390f35b6104e160048036038101906104dc91906117c1565b610e56565b005b6104fd60048036038101906104f891906117c1565b610eb1565b60405161050a91906116c5565b60405180910390f35b6060600380546105229061193d565b80601f016020809104026020016040519081016040528092919081815260200182805461054e9061193d565b801561059b5780601f106105705761010080835404028352916020019161059b565b820191906000526020600020905b81548152906001019060200180831161057e57829003601f168201915b5050505050905090565b6000806105b0610ed1565b90506105bd818585610ed9565b600191505092915050565b6000600254905090565b6000806105dd610ed1565b90506105ea8582856110a2565b6105f585858561112e565b60019150509392505050565b60006012905090565b60006007541161064f576040517f08c379a0000000000000000000000000000000000000000000000000000000008152600401610646906119ba565b60405180910390fd5b600754421115610694576040517f08c379a000000000000000000000000000000000000000000000000000000000815260040161068b90611a26565b60405180910390fd5b600654816106a06105c8565b6106aa9190611a75565b11156106eb576040517f08c379a00000000000000000000000000000000000000000000000000000000081526004016106e290611b17565b60405180910390fd5b6000600554826106fb9190611b37565b9050600c60009054906101000a900473ffffffffffffffffffffffffffffffffffffffff1673ffffffffffffffffffffffffffffffffffffffff166323b872dd3330846040518463ffffffff1660e01b815260040161075c93929190611b91565b6020604051808303816000875af115801561077b573d6000803e3d6000fd5b505050506040513d601f19601f8201168201806040525081019061079f9190611bf4565b506107aa33836113ad565b6107b333610e56565b5050565b6000806107c2610ed1565b90506107e38185856107d48589610dcf565b6107de9190611a75565b610ed9565b600191505092915050565b600e60003373ffffffffffffffffffffffffffffffffffffffff1673ffffffffffffffffffffffffffffffffffffffff16815260200190815260200160002060009054906101000a900460ff1661087a576040517f08c379a000000000000000000000000000000000000000000000000000000000815260040161087190611c6d565b60405180910390fd5b6000600e60008373ffffffffffffffffffffffffffffffffffffffff1673ffffffffffffffffffffffffffffffffffffffff16815260200190815260200160002060006101000a81548160ff02191690831515021790555050565b600b60009054906101000a900473ffffffffffffffffffffffffffffffffffffffff1681565b60075481565b600a5481565b600b60009054906101000a900473ffffffffffffffffffffffffffffffffffffffff1673ffffffffffffffffffffffffffffffffffffffff166323b872dd33306009546040518463ffffffff1660e01b815260040161096893929190611b91565b600060405180830381600087803b15801561098257600080fd5b505af1158015610996573d6000803e3d6000fd5b50505050620151806008546109ab9190611b37565b426109b69190611a75565b600781905550565b60085481565b600e60003373ffffffffffffffffffffffffffffffffffffffff1673ffffffffffffffffffffffffffffffffffffffff16815260200190815260200160002060009054906101000a900460ff16610a50576040517f08c379a0000000000000000000000000000000000000000000000000000000008152600401610a4790611c6d565b60405180910390fd5b600060075411610a95576040517f08c379a0000000000000000000000000000000000000000000000000000000008152600401610a8c906119ba565b60405180910390fd5b600754421115610ada576040517f08c379a0000000000000000000000000000000000000000000000000000000008152600401610ad190611a26565b60405180910390fd5b60065481610ae66105c8565b610af09190611a75565b1115610b31576040517f08c379a0000000000000000000000000000000000000000000000000000000008152600401610b2890611b17565b60405180910390fd5b600060055482610b419190611b37565b9050600c60009054906101000a900473ffffffffffffffffffffffffffffffffffffffff1673ffffffffffffffffffffffffffffffffffffffff166323b872dd3330846040518463ffffffff1660e01b8152600401610ba293929190611b91565b6020604051808303816000875af1158015610bc1573d6000803e3d6000fd5b505050506040513d601f19601f82011682018060405250810190610be59190611bf4565b50610bf033836113ad565b610bf9336107ee565b5050565b60008060008373ffffffffffffffffffffffffffffffffffffffff1673ffffffffffffffffffffffffffffffffffffffff168152602001908152602001600020549050919050565b60065481565b60055481565b606060048054610c609061193d565b80601f0160208091040260200160405190810160405280929190818152602001828054610c8c9061193d565b8015610cd95780601f10610cae57610100808354040283529160200191610cd9565b820191906000526020600020905b815481529060010190602001808311610cbc57829003601f168201915b5050505050905090565b600080610cee610ed1565b90506000610cfc8286610dcf565b905083811015610d41576040517f08c379a0000000000000000000000000000000000000000000000000000000008152600401610d3890611cff565b60405180910390fd5b610d4e8286868403610ed9565b60019250505092915050565b600080610d65610ed1565b9050610d7281858561112e565b600191505092915050565b600c60009054906101000a900473ffffffffffffffffffffffffffffffffffffffff1681565b60095481565b600d60009054906101000a900473ffffffffffffffffffffffffffffffffffffffff1681565b6000600160008473ffffffffffffffffffffffffffffffffffffffff1673ffffffffffffffffffffffffffffffffffffffff16815260200190815260200160002060008373ffffffffffffffffffffffffffffffffffffffff1673ffffffffffffffffffffffffffffffffffffffff16815260200190815260200160002054905092915050565b6001600e60008373ffffffffffffffffffffffffffffffffffffffff1673ffffffffffffffffffffffffffffffffffffffff16815260200190815260200160002060006101000a81548160ff02191690831515021790555050565b600e6020528060005260406000206000915054906101000a900460ff1681565b600033905090565b600073ffffffffffffffffffffffffffffffffffffffff168373ffffffffffffffffffffffffffffffffffffffff1603610f48576040517f08c379a0000000000000000000000000000000000000000000000000000000008152600401610f3f90611d91565b60405180910390fd5b600073ffffffffffffffffffffffffffffffffffffffff168273ffffffffffffffffffffffffffffffffffffffff1603610fb7576040517f08c379a0000000000000000000000000000000000000000000000000000000008152600401610fae90611e23565b60405180910390fd5b80600160008573ffffffffffffffffffffffffffffffffffffffff1673ffffffffffffffffffffffffffffffffffffffff16815260200190815260200160002060008473ffffffffffffffffffffffffffffffffffffffff1673ffffffffffffffffffffffffffffffffffffffff168152602001908152602001600020819055508173ffffffffffffffffffffffffffffffffffffffff168373ffffffffffffffffffffffffffffffffffffffff167f8c5be1e5ebec7d5bd14f71427d1e84f3dd0314c0f7b2291e5b200ac8c7c3b9258360405161109591906116ef565b60405180910390a3505050565b60006110ae8484610dcf565b90507fffffffffffffffffffffffffffffffffffffffffffffffffffffffffffffffff8114611128578181101561111a576040517f08c379a000000000000000000000000000000000000000000000000000000000815260040161111190611e8f565b60405180910390fd5b6111278484848403610ed9565b5b50505050565b600073ffffffffffffffffffffffffffffffffffffffff168373ffffffffffffffffffffffffffffffffffffffff160361119d576040517f08c379a000000000000000000000000000000000000000000000000000000000815260040161119490611f21565b60405180910390fd5b600073ffffffffffffffffffffffffffffffffffffffff168273ffffffffffffffffffffffffffffffffffffffff160361120c576040517f08c379a000000000000000000000000000000000000000000000000000000000815260040161120390611fb3565b60405180910390fd5b61121783838361150c565b60008060008573ffffffffffffffffffffffffffffffffffffffff1673ffffffffffffffffffffffffffffffffffffffff1681526020019081526020016000205490508181101561129d576040517f08c379a000000000000000000000000000000000000000000000000000000000815260040161129490612045565b60405180910390fd5b8181036000808673ffffffffffffffffffffffffffffffffffffffff1673ffffffffffffffffffffffffffffffffffffffff16815260200190815260200160002081905550816000808573ffffffffffffffffffffffffffffffffffffffff1673ffffffffffffffffffffffffffffffffffffffff16815260200190815260200160002060008282546113309190611a75565b925050819055508273ffffffffffffffffffffffffffffffffffffffff168473ffffffffffffffffffffffffffffffffffffffff167fddf252ad1be2c89b69c2b068fc378daa952ba7f163c4a11628f55a4df523b3ef8460405161139491906116ef565b60405180910390a36113a7848484611511565b50505050565b600073ffffffffffffffffffffffffffffffffffffffff168273ffffffffffffffffffffffffffffffffffffffff160361141c576040517f08c379a0000000000000000000000000000000000000000000000000000000008152600401611413906120b1565b60405180910390fd5b6114286000838361150c565b806002600082825461143a9190611a75565b92505081905550806000808473ffffffffffffffffffffffffffffffffffffffff1673ffffffffffffffffffffffffffffffffffffffff168152602001908152602001600020600082825461148f9190611a75565b925050819055508173ffffffffffffffffffffffffffffffffffffffff16600073ffffffffffffffffffffffffffffffffffffffff167fddf252ad1be2c89b69c2b068fc378daa952ba7f163c4a11628f55a4df523b3ef836040516114f491906116ef565b60405180910390a361150860008383611511565b5050565b505050565b505050565b600081519050919050565b600082825260208201905092915050565b60005b83811015611550578082015181840152602081019050611535565b8381111561155f576000848401525b50505050565b6000601f19601f8301169050919050565b600061158182611516565b61158b8185611521565b935061159b818560208601611532565b6115a481611565565b840191505092915050565b600060208201905081810360008301526115c98184611576565b905092915050565b600080fd5b600073ffffffffffffffffffffffffffffffffffffffff82169050919050565b6000611601826115d6565b9050919050565b611611816115f6565b811461161c57600080fd5b50565b60008135905061162e81611608565b92915050565b6000819050919050565b61164781611634565b811461165257600080fd5b50565b6000813590506116648161163e565b92915050565b60008060408385031215611681576116806115d1565b5b600061168f8582860161161f565b92505060206116a085828601611655565b9150509250929050565b60008115159050919050565b6116bf816116aa565b82525050565b60006020820190506116da60008301846116b6565b92915050565b6116e981611634565b82525050565b600060208201905061170460008301846116e0565b92915050565b600080600060608486031215611723576117226115d1565b5b60006117318682870161161f565b93505060206117428682870161161f565b925050604061175386828701611655565b9150509250925092565b600060ff82169050919050565b6117738161175d565b82525050565b600060208201905061178e600083018461176a565b92915050565b6000602082840312156117aa576117a96115d1565b5b60006117b884828501611655565b91505092915050565b6000602082840312156117d7576117d66115d1565b5b60006117e58482850161161f565b91505092915050565b6000819050919050565b600061181361180e611809846115d6565b6117ee565b6115d6565b9050919050565b6000611825826117f8565b9050919050565b60006118378261181a565b9050919050565b6118478161182c565b82525050565b6000602082019050611862600083018461183e565b92915050565b60006118738261181a565b9050919050565b61188381611868565b82525050565b600060208201905061189e600083018461187a565b92915050565b6118ad816115f6565b82525050565b60006020820190506118c860008301846118a4565b92915050565b600080604083850312156118e5576118e46115d1565b5b60006118f38582860161161f565b92505060206119048582860161161f565b9150509250929050565b7f4e487b7100000000000000000000000000000000000000000000000000000000600052602260045260246000fd5b6000600282049050600182168061195557607f821691505b6020821081036119685761196761190e565b5b50919050565b7f46756e64206e6f74207374617274656400000000000000000000000000000000600082015250565b60006119a4601083611521565b91506119af8261196e565b602082019050919050565b600060208201905081810360008301526119d381611997565b9050919050565b7f46756e64696e6720616c726561647920636c6f73656400000000000000000000600082015250565b6000611a10601683611521565b9150611a1b826119da565b602082019050919050565b60006020820190508181036000830152611a3f81611a03565b9050919050565b7f4e487b7100000000000000000000000000000000000000000000000000000000600052601160045260246000fd5b6000611a8082611634565b9150611a8b83611634565b9250827fffffffffffffffffffffffffffffffffffffffffffffffffffffffffffffffff03821115611ac057611abf611a46565b5b828201905092915050565b7f4e6f7420656e6f75676820746f6b656e20746f20627579000000000000000000600082015250565b6000611b01601783611521565b9150611b0c82611acb565b602082019050919050565b60006020820190508181036000830152611b3081611af4565b9050919050565b6000611b4282611634565b9150611b4d83611634565b9250817fffffffffffffffffffffffffffffffffffffffffffffffffffffffffffffffff0483118215151615611b8657611b85611a46565b5b828202905092915050565b6000606082019050611ba660008301866118a4565b611bb360208301856118a4565b611bc060408301846116e0565b949350505050565b611bd1816116aa565b8114611bdc57600080fd5b50565b600081519050611bee81611bc8565b92915050565b600060208284031215611c0a57611c096115d1565b5b6000611c1884828501611bdf565b91505092915050565b7f4973206e6f7420616e20696e766573746f720000000000000000000000000000600082015250565b6000611c57601283611521565b9150611c6282611c21565b602082019050919050565b60006020820190508181036000830152611c8681611c4a565b9050919050565b7f45524332303a2064656372656173656420616c6c6f77616e63652062656c6f7760008201527f207a65726f000000000000000000000000000000000000000000000000000000602082015250565b6000611ce9602583611521565b9150611cf482611c8d565b604082019050919050565b60006020820190508181036000830152611d1881611cdc565b9050919050565b7f45524332303a20617070726f76652066726f6d20746865207a65726f2061646460008201527f7265737300000000000000000000000000000000000000000000000000000000602082015250565b6000611d7b602483611521565b9150611d8682611d1f565b604082019050919050565b60006020820190508181036000830152611daa81611d6e565b9050919050565b7f45524332303a20617070726f766520746f20746865207a65726f20616464726560008201527f7373000000000000000000000000000000000000000000000000000000000000602082015250565b6000611e0d602283611521565b9150611e1882611db1565b604082019050919050565b60006020820190508181036000830152611e3c81611e00565b9050919050565b7f45524332303a20696e73756666696369656e7420616c6c6f77616e6365000000600082015250565b6000611e79601d83611521565b9150611e8482611e43565b602082019050919050565b60006020820190508181036000830152611ea881611e6c565b9050919050565b7f45524332303a207472616e736665722066726f6d20746865207a65726f20616460008201527f6472657373000000000000000000000000000000000000000000000000000000602082015250565b6000611f0b602583611521565b9150611f1682611eaf565b604082019050919050565b60006020820190508181036000830152611f3a81611efe565b9050919050565b7f45524332303a207472616e7366657220746f20746865207a65726f206164647260008201527f6573730000000000000000000000000000000000000000000000000000000000602082015250565b6000611f9d602383611521565b9150611fa882611f41565b604082019050919050565b60006020820190508181036000830152611fcc81611f90565b9050919050565b7f45524332303a207472616e7366657220616d6f756e742065786365656473206260008201527f616c616e63650000000000000000000000000000000000000000000000000000602082015250565b600061202f602683611521565b915061203a82611fd3565b604082019050919050565b6000602082019050818103600083015261205e81612022565b9050919050565b7f45524332303a206d696e7420746f20746865207a65726f206164647265737300600082015250565b600061209b601f83611521565b91506120a682612065565b602082019050919050565b600060208201905081810360008301526120ca8161208e565b905091905056fea2646970667358221220c8f0666c4ea2dbaa59687830f8b59320ebcf6d5fb8c82f00129f21a2b2528cc364736f6c634300080d0033",
  "immutableReferences": {},
  "source": "// SPDX-License-Identifier: MIT\r\npragma solidity ^0.8.13;\r\n\r\nimport '@openzeppelin/contracts/token/ERC721/IERC721.sol';\r\nimport '@openzeppelin/contracts/token/ERC20/ERC20.sol';\r\nimport '@openzeppelin/contracts/token/ERC20/IERC20.sol';\r\n\r\ncontract TokenizeNFT is ERC20 {\r\n    uint256 public tokenPrice;\r\n    uint256 public tokenSupply;\r\n\r\n    // End of funding Open in days\r\n    uint public closePeriod;\r\n    uint public numDaysToClose;\r\n    uint public nftId;\r\n    uint public minAmtRaise; // need to raise at least this much\r\n\r\n    IERC721 public nft;\r\n    IERC20 public stableAddress; //USDC, USDT, DAI\r\n\r\n    address public contractIssuer; //YS issuer\r\n    mapping(address => bool) public _investors;\r\n\r\n    constructor(\r\n        string memory _name,\r\n        string memory _symbol,\r\n        address _nftAddress,\r\n        uint _nftId,\r\n        uint _tokenPrice,\r\n        uint _tokenSupply,\r\n        address _stableAddress,\r\n        uint _numDaysToClose,\r\n        uint _minAmtRaise\r\n    )\r\n\r\n    ERC20(_name, _symbol) \r\n    {\r\n        nftId = _nftId;\r\n        nft = IERC721(_nftAddress);\r\n        tokenPrice = _tokenPrice;\r\n        tokenSupply = _tokenSupply;\r\n        stableAddress = IERC20(_stableAddress);\r\n        contractIssuer = msg.sender;\r\n        numDaysToClose = _numDaysToClose;\r\n        minAmtRaise = _minAmtRaise;\r\n    }\r\n\r\n    // You are an investor only when you purchase.\r\n    // can YS admin be its own investor?\r\n    modifier isInvestor() {\r\n        require( _investors[msg.sender] , \"Is not an investor\");\r\n        _;\r\n    }\r\n\r\n    modifier isIssuer() {\r\n        require(msg.sender == contractIssuer, \"Is not issuer\");\r\n        _;\r\n    }\r\n\r\n    function addInvestor(address user) \r\n        public {\r\n        _investors[user] = true;\r\n    }\r\n\r\n    function removeInvestor(address user)\r\n        isInvestor\r\n        public {\r\n        _investors[user] = false;   \r\n    }\r\n\r\n\r\n    /**\r\n     Issues the number of tokens based on the NFT\r\n     */\r\n    function issueTokens() external {\r\n        nft.transferFrom(msg.sender, address(this), nftId);\r\n        closePeriod = block.timestamp + numDaysToClose * 86400;\r\n    }\r\n\r\n    /**\r\n    Investor buys the number of desire tokens. \r\n    Checks if the fund has enough for user's desired amt to purchase\r\n     */\r\n    function buyTokens(uint shareQty) external { \r\n        require(closePeriod > 0, 'Fund not started');\r\n        require(block.timestamp <= closePeriod, 'Funding already closed');\r\n        require(totalSupply() + shareQty <= tokenSupply, 'Not enough token to buy');\r\n        uint stableAmt = shareQty * tokenPrice;\r\n        stableAddress.transferFrom(msg.sender, address(this), stableAmt);\r\n        _mint(msg.sender, shareQty);\r\n        addInvestor(msg.sender);\r\n    }\r\n\r\n    /**\r\n    Investor buys the number of desire tokens. \r\n    Checks if the fund has enough for user's desired amt to purchase\r\n     */\r\n    function sellTokens(uint shareQty) isInvestor external { \r\n        require(closePeriod > 0, 'Fund not started');\r\n        require(block.timestamp <= closePeriod, 'Funding already closed');\r\n        require(totalSupply() + shareQty <= tokenSupply, 'Not enough token to buy');\r\n        uint stableAmt = shareQty * tokenPrice;\r\n        stableAddress.transferFrom(msg.sender, address(this), stableAmt);\r\n        _mint(msg.sender, shareQty);\r\n        removeInvestor(msg.sender);\r\n    }\r\n\r\n    /**\r\n    YS takes proceeds for usage.\r\n    If there is leftover of unissued tokens, should we create LP, escrow, ideas what to do?\r\n     */\r\n    // function withdrawProceeds() isIssuer external {\r\n    //     require()\r\n    // }\r\n\r\n\r\n}\r\n\r\n\r\n\r\n",
  "sourcePath": "C:\\Users\\JaimeLynn\\Desktop\\Project\\token-nft\\contracts\\token.sol",
  "compiler": {
    "name": "solc",
    "version": "0.8.13+commit.abaa5c0e.Emscripten.clang"
  },
  "schemaVersion": "3.4.7",
  "updatedAt": "2022-05-16T14:17:41.490Z",
  "devdoc": {
    "kind": "dev",
    "methods": {
      "allowance(address,address)": {
        "details": "See {IERC20-allowance}."
      },
      "approve(address,uint256)": {
        "details": "See {IERC20-approve}. NOTE: If `amount` is the maximum `uint256`, the allowance is not updated on `transferFrom`. This is semantically equivalent to an infinite approval. Requirements: - `spender` cannot be the zero address."
      },
      "balanceOf(address)": {
        "details": "See {IERC20-balanceOf}."
      },
      "decimals()": {
        "details": "Returns the number of decimals used to get its user representation. For example, if `decimals` equals `2`, a balance of `505` tokens should be displayed to a user as `5.05` (`505 / 10 ** 2`). Tokens usually opt for a value of 18, imitating the relationship between Ether and Wei. This is the value {ERC20} uses, unless this function is overridden; NOTE: This information is only used for _display_ purposes: it in no way affects any of the arithmetic of the contract, including {IERC20-balanceOf} and {IERC20-transfer}."
      },
      "decreaseAllowance(address,uint256)": {
        "details": "Atomically decreases the allowance granted to `spender` by the caller. This is an alternative to {approve} that can be used as a mitigation for problems described in {IERC20-approve}. Emits an {Approval} event indicating the updated allowance. Requirements: - `spender` cannot be the zero address. - `spender` must have allowance for the caller of at least `subtractedValue`."
      },
      "increaseAllowance(address,uint256)": {
        "details": "Atomically increases the allowance granted to `spender` by the caller. This is an alternative to {approve} that can be used as a mitigation for problems described in {IERC20-approve}. Emits an {Approval} event indicating the updated allowance. Requirements: - `spender` cannot be the zero address."
      },
      "name()": {
        "details": "Returns the name of the token."
      },
      "symbol()": {
        "details": "Returns the symbol of the token, usually a shorter version of the name."
      },
      "totalSupply()": {
        "details": "See {IERC20-totalSupply}."
      },
      "transfer(address,uint256)": {
        "details": "See {IERC20-transfer}. Requirements: - `to` cannot be the zero address. - the caller must have a balance of at least `amount`."
      },
      "transferFrom(address,address,uint256)": {
        "details": "See {IERC20-transferFrom}. Emits an {Approval} event indicating the updated allowance. This is not required by the EIP. See the note at the beginning of {ERC20}. NOTE: Does not update the allowance if the current allowance is the maximum `uint256`. Requirements: - `from` and `to` cannot be the zero address. - `from` must have a balance of at least `amount`. - the caller must have allowance for ``from``'s tokens of at least `amount`."
      }
    },
    "version": 1
  },
  "userdoc": {
    "kind": "user",
    "methods": {
      "buyTokens(uint256)": {
        "notice": "Investor buys the number of desire tokens.  Checks if the fund has enough for user's desired amt to purchase"
      },
      "issueTokens()": {
        "notice": "Issues the number of tokens based on the NFT"
      },
      "sellTokens(uint256)": {
        "notice": "Investor buys the number of desire tokens.  Checks if the fund has enough for user's desired amt to purchase"
      }
    },
    "version": 1
  }
}